:10000000DBC20000F6C20000F4C20000F2C2000031
:10001000F0C20000EEC20000ECC20000EAC2000024
:10002000E8C20000E6C2000056C50000E2C20000BF
:10003000E0C20000DEC20000DCC20000DAC2000044
:10004000D8C20000D6C20000D4C20000D2C2000054
:10005000D0C20000CEC20000CCC20000CAC2000064
:10006000C8C200000C94C2080C949708C2C20000D9
:10007000C0C20000BEC20000BCC20000BAC2000084
:10008000B8C20000B6C20000B4C20000B2C2000094
:10009000B0C20000AEC20000ACC20000AAC20000A4
:1000A000A8C20000A6C20000A4C200000000000018
:1000B00003836BF2F7703BE1F4F350131F979AC779
:1000C0001C14F135E8E7A126EB64CAD4CF58D98ACD
:1000D000CCDBB2783828E26B3BAB8999D0CF434D6B
:1000E000D34C28BF27BF78AC243C135E6FC75E108B
:1000F0006C4435E298B765F19B340E037050C4D759
:1001000073D3AF258720FF3684A394C4A09F879A1A
:10011000A31CEC6857EFBC7B546CD789BF081D5DEE
:10012000BC8B76AF487826BC4BFB4D4EDE8EBD2097
:10013000DD0DD6D229FE86C12A7DED33C11927E710
:10014000C29A4C1536691C0635EA77F411D664AAB2
:1001500012550F58E6A65F4BE52534B90E41FE6DEA
:100160000DC2959FF931C58CFAB2AE7EB149E3302C
:10017000B2CA88C24639D8D145BAB323AEDE79F7C0
:10018000AD5D120559AE42165A2D29E47E113ABAD8
:100190007D9251488961015B8AE26AA96186A07DEE
:1001A0006205CB8F96F69B9C9575F06EBC1D7B41CE
:1001B000BF9E10B34B6D40A048EE2B52A38AE18640
:1001C000A0098A7454FADA675779B1957345A2CBBE
:1001D00070C6C9398435992A87B6F2D86CD2380CE2
:1001E0006F5153FE9BA203ED9821681FD3DA25516E
:1001F000D0594EA324AA1EB027297542CC4DBF96D4
:10020000CFCED4643B3D847738BEEF851C82FCDBC7
:100210001F019729EBF2C73AE871ACC80315661CB9
:1002200000960DEEF4655DFDF7E6360F6293C6614C
:100230006110AD9395E3FD80966096727D045CA697
:100240007E8737548A74674789F70CB5ADCB1FEBAF
:10025000AE4874195ABB240A59384FF8B25C852C41
:10026000B1DFEEDE452CBECD46AFD53F0D549871C3
:100270000ED7F383FA24A390F9A7C86212C302B67B
:1002800011406944E5B33957E63052A5C20C41FB31
:10029000C18F2A09357C7A1A36FF11E8DD9BDB3CD9
:1002A000DE18B0CE2AEBE0DD29688B2F783BF68292
:1002B0007BB89D708F4BCD638CC8A69167AC6C45A5
:1002C000642F07B790DC57A4935F3C56B7632F08A1
:1002D000B4E044FA401314E943907F1BA8F4B5CF6F
:1002E000AB77DE3D5F848E2E5C07E5DC17FCA892C1
:1002F000147FC360E08C9373E30FF881086B325571
:100300000BE859A7FF1B09B4FC986246D8A47118E2
:10031000DB271AEA2FD44AF92C57210BC733EBDF1E
:10032000C4B0802D3043D03E33C0BBCCA6B54BA269
:10033000A536205051C5704352461BB1B922D16534
:10034000BAA1BA974E52EA844DD1817669ED9228CE
:100350006A6EF9DA9E9DA9C99D1EC23B767A08EFA6
:1003600075F9631D810A330E828958FCC97215B272
:10037000CAF17E403E022E533D8145A1D6E58F75E0
:10038000D566E4872195B4942216DF66062ACC3818
:1003900005A9A7CAF15AF7D9F2D99C2B19BD56FF66
:1003A0001A3E3D0DEECD6D1EED4E06ECC4268DC3FE
:1003B000C7A5E6313356B62230D5DDD0DBB1170400
:1003C000D8327CF62CC12CE52F4247170B7E5449BE
:1003D00008FD3FBBFC0E6FA8FF8D045A14E9CE8EBA
:1003E000176AA57CE399F56FE01A9E9DABE1D3D324
:1003F000A862B8215C91E8325F1283C0B4764914D8
:10040000B7F522E6430672F54085190764B90A5923
:10041000673A61AB93C931B8904A5A4A7B2E909E95
:1004200078ADFB6C8C5EAB7F8FDDC08D1AA830E39E
:10043000192B5B11EDD80B02EE5B60F0053FAA248F
:1004400006BCC1D6F24F91C5F1CCFA37D5F0E969B7
:10045000D673829B2280D2882103B97ACA6773AE91
:10046000C9E4185C3D17484F3E9423BD756F6EF389
:1004700076EC0501821F5512819C3EE06AF8F43447
:10048000697B9FC69D88CFD59E0BA427BA37B779C5
:10049000B9B4DC8B4D478C984EC4E76AA5A02DBE3D
:1004A000A623464C52D0165F51537DAD0501090578
:1004B000A1011500250135004501750195100509BB
:1004C00019012910810205012507463B0175049594
:1004D0000165140939814265009501810126FF00FB
:1004E00046FF000930093109320935750895048144
:1004F000020600FF0920950181020A212695089134
:1005000002C012010002000000400D0F9200000125
:10051000010200010902290001010080FA0904001A
:10052000000203000000092111010001225600070A
:100530000502034000080705810340000804030981
:10054000041C0348004F0052004900200043004FA4
:10055000002E002C004C00540044002E000000240B
:100560000350004F004B004B0045004E002000435D
:10057000004F004E00540052004F004C004C00450C
:100580000052000000D5738162EED5E1EB87FB32AB
:1005900090FD4C66EF8B83F4D8CD3598F89A070818
:1005A000C5E3DEEF34208E99125EC41094D3948A92
:1005B0000D8A77CD128360E611241FBECFEFDAE0FB
:1005C000DEBFCDBF11E0A0E0B1E0EEE4F5E202C095
:1005D00005900D92AA35B107D9F712E0AAE5B1E06E
:1005E00001C01D92AF32B107E1F70E94D7110C9400
:1005F000A51206CD882319F028985D980895289AA9
:100600005D9A0895209A559A80E0F4CF9C0140911C
:10061000090250910A024617570718F4F90190E0B1
:1006200043C06115710511F0AB01F8CF8091E8006E
:100630008E778093E80040E050E0F0CF8091020296
:10064000882309F447C0853009F446C08091E8004A
:1006500083FD44C08091E80082FD36C08091E800AF
:1006600080FF22C08091F3009091F200782F60E02B
:10067000292F30E0262B372B07C081918093F10082
:10068000415050402F5F3F4F4115510519F0203424
:10069000310598F390E02034310509F491E0809120
:1006A000E8008E778093E8004115510539F69923CB
:1006B00029F60AC080910202882361F0853061F03A
:1006C0008091E80083FD0AC08091E80082FFF2CFAC
:1006D00080E0089582E0089583E0089581E0089520
:1006E0009C014091090250910A024617570718F4DD
:1006F000F90190E044C06115710511F0AB01F8CF2C
:100700008091E8008E778093E80040E050E0F0CFE1
:1007100080910202882309F448C0853009F447C05B
:100720008091E80083FD45C08091E80082FD37C0DC
:100730008091E80080FF23C08091F3009091F20047
:10074000782F60E0292F30E0262B372B08C08491CA
:100750008093F1003196415050402F5F3F4F41153B
:10076000510519F02034310590F390E02034310523
:1007700009F491E08091E8008E778093E8004115BC
:10078000510531F6992321F60AC08091020288238F
:1007900061F0853061F08091E80083FD0AC08091AE
:1007A000E80082FFF2CF80E0089582E0089583E0C0
:1007B000089581E00895BF92CF92DF92EF92FF9269
:1007C0000F931F93CF93DF93182F092F7B016A019B
:1007D000EFD0B82E8823B1F5812F902F9C01E9012D
:1007E000C114D10439F0F60180819181E81AF90A27
:1007F000C80FD91F00E010E022C08091E80085FDFD
:1008000016C08091E8008B778093E8009BD3C114D9
:10081000D10449F0F60180819181800F911F91836D
:10082000808385E010C0C4D0882349F00CC080913B
:10083000F10089930894E108F1080F5F1F4FE1145C
:10084000F104D9F68B2DDF91CF911F910F91FF907D
:10085000EF90DF90CF90BF900895BF92CF92DF923C
:10086000EF92FF920F931F93CF93DF93182F092FCF
:100870007B016A019DD0B82E8823B1F5812F902F7E
:100880009C01E901C114D10439F0F6018081918104
:10089000E81AF90AC80FD91F00E010E022C08091C1
:1008A000E80085FD16C08091E8008E778093E8000F
:1008B00049D3C114D10449F0F60180819181800FA0
:1008C000911F9183808385E010C072D0882349F006
:1008D0000CC089918093F1000894E108F1080F5F42
:1008E0001F4FE114F104D9F68B2DDF91CF911F91A9
:1008F0000F91FF90EF90DF90CF90BF900895382F29
:10090000282F2EC0822F8F708093E900231721F4A7
:10091000762F942F50E006C07091EC009091ED007E
:100920005091F00091FF1BC08091EB008E7F80936F
:10093000EB008091ED008D7F8093ED008091EB00C6
:1009400081608093EB007093EC009093ED005093E6
:10095000F0008091EE0087FD02C080E008952F5FD7
:10096000273080F23F703093E90081E00895809154
:10097000030288239CF404C0809102028823B9F00A
:100980008091E80082FFF8CF8091E8008B77809318
:10099000E800089580910202882349F08091E800E0
:1009A00080FFF8CF8091E8008E778093E80008956B
:1009B0004091E4005091E50024E68091EC0080FF36
:1009C00024C08091E80080FD1EC08091020288232F
:1009D00011F482E00895853011F483E00895809148
:1009E000EB0085FF02C081E008958091E4009091C2
:1009F000E5008417950709F3222311F484E0089594
:100A00002150AC01DACF80E008958091E80082FFA8
:100A1000DCCFF9CFEF92FF920F931F934FD056D0B8
:100A200008ED10E0F80180818F77808380818068F5
:100A3000808380818F7D808319BC10920202109286
:100A4000FE01109200021092FF0180EEE82EF12CC0
:100A5000F70180818B7F8083F801808181608083B2
:100A600080E060E042E34BDFE1EEF0E080818E7FEA
:100A70008083E2EEF0E08081816080838081886005
:100A80008083F70180818E7F8083F801808180617F
:100A900080831F910F91FF90EF900895E8EDF0E0B3
:100AA00080818F7E8083E7EDF0E0808181608083AC
:100AB00084E082BF81E080930102ACCFE8EDF0E0FA
:100AC00080818E7F80831092E20008951092DA0078
:100AD0001092E10008951F920F920FB60F92112409
:100AE0002F933F934F935F936F937F938F939F9336
:100AF000AF93BF93EF93FF938091E10082FF0AC011
:100B00008091E20082FF06C08091E1008B7F80939C
:100B1000E10017D28091DA0080FF1DC08091D800DB
:100B200080FF19C08091DA008E7F8093DA00809177
:100B3000D90080FF0CC080E189BD82E189BD09B484
:100B400000FEFDCF81E0809302028CD304C019BC6B
:100B50001092020288D38091E10080FF18C080913A
:100B6000E20080FF14C08091E2008E7F8093E2005B
:100B70008091E20080618093E2008091D8008062E1
:100B80008093D80019BC85E080930202DAD180916D
:100B9000E10084FF2FC08091E20084FF2BC080E140
:100BA00089BD82E189BD09B400FEFDCF8091D800E6
:100BB0008F7D8093D8008091E1008F7E8093E1004B
:100BC0008091E2008F7E8093E2008091E20081605C
:100BD0008093E2008091FE01882311F084E007C039
:100BE0008091E30087FD02C081E001C083E0809333
:100BF0000202A7D18091E10083FF22C08091E20030
:100C000083FF1EC08091E100877F8093E10082E036
:100C1000809302021092FE018091E1008E7F80930A
:100C2000E1008091E2008E7F8093E2008091E200FB
:100C300080618093E20080E060E042E360DE81D189
:100C4000FF91EF91BF91AF919F918F917F916F91A4
:100C50005F914F913F912F910F900FBE0F901F907A
:100C600018951F93DF93CF93CDB7DEB7AC970FB630
:100C7000F894DEBF0FBECDBFE3E0F2E08091F1005B
:100C8000819322E0EB30F207C9F7EED28091E800C1
:100C900083FF3FC18091030230910402353009F493
:100CA0008DC0363040F43130E1F1313070F0333006
:100CB00009F02FC136C0383009F4FDC0393009F4CD
:100CC0000CC1363009F025C19CC0803821F0823833
:100CD00009F01FC108C09091FF0180910002882394
:100CE000B1F0926014C0809107028F70873008F0D5
:100CF00010C18093E9008091EB0090E025E096958B
:100D000087952A95E1F7982F91701092E9008091CC
:100D1000E800877F8093E8009093F1001092F10043
:100D2000D5C0882319F0823009F0F3C090E08F71AC
:100D30009070009721F0029709F0EBC00CC08091F1
:100D40000502813009F0E5C010920002333081F5D0
:100D5000809300022DC080910502882349F52091DF
:100D600007022F70822F8150863008F0D2C0209366
:100D7000E9008091EB0080FF1BC0333021F48091AB
:100D8000EB00806213C08091EB0080618093EB00E8
:100D900081E090E002C0880F991F2A95E2F78093C6
:100DA000EA001092EA008091EB0088608093EB00EB
:100DB0001092E9008091E800877F8BC0882309F0BA
:100DC000A8C0109105021F778091E3008078812BE5
:100DD0008093E3008091E800877F8093E800C7DD7F
:100DE0008091E80080FFFCCF8091E30080688093D1
:100DF000E300112311F482E001C083E0809302023A
:100E000088C08058823008F084C08091050290919B
:100E1000060223E08C3D920709F033C083E08C8307
:100E20008AE28B837FB7F894DE0115966EE040E08E
:100E300050E011E2E62FF0E010935700849140FF5C
:100E400003C082958F706F5F8F70282F30E08A30DB
:100E500018F0C901C79602C0C901C0968D939D9331
:100E60004F5F5F4F4431510529F77FBF8091E80004
:100E7000877F8093E800CE0103966AE270E0C6DBCC
:100E800014C06091070270910802AE014F5F5F4F7E
:100E9000A0D1BC01009709F43CC08091E800877F95
:100EA0008093E80089819A811BDC8091E8008B7730
:100EB0008093E8002EC0803861F58091E800877F3C
:100EC0008093E8008091FE018093F1008091E8001A
:100ED0008E778093E8004BDD1CC08823D1F490917D
:100EE00005029230B0F48091E800877F8093E8009B
:100EF0009093FE013CDD8091FE01882331F48091C6
:100F0000E30087FD02C081E001C084E0809302021B
:100F10001AD28091E80083FF0AC08091E800877FA1
:100F20008093E8008091EB0080628093EB00AC96A8
:100F30000FB6F894DEBF0FBECDBFCF91DF911F91EA
:100F4000089508951F9380910202882371F01091F3
:100F5000E9008091EC001092E9008091E80083FFA5
:100F600001C07FDE1F701093E9001F91089581E09A
:100F700041CB48CB08956F927F928F929F92AF9210
:100F8000BF92CF92DF92EF92FF920F931F93DF9366
:100F9000CF9300D000D0CDB7DEB77B018C014A01E2
:100FA0005901CC24DD243E010894611C711C20C031
:100FB000F401EC0DFD1D60816E2570E0660F771F5A
:100FC000660F771F64557F4FC30144E050E00E94D5
:100FD0009C12EF2CF02E012F112789819A81AB8171
:100FE000BC81E826F9260A271B270894C11CD11CBE
:100FF000CA14DB04E8F2B701C8010F900F900F90FC
:101000000F90CF91DF911F910F91FF90EF90DF90A4
:10101000CF90BF90AF909F908F907F906F900895EA
:10102000EF92FF920F931F937C018B0104501040AD
:101030006FEF7FEF8FEF9FEFA70198019CDF0E0D01
:101040001F1DF80160837183828393831F910F9129
:10105000FF90EF9008959B01AC01F89460E079E077
:101060008DE390E00E947A12215030404040504081
:1010700056954795379527953093CD002093CC0012
:1010800082E08093C80088E98093C90086E080935D
:10109000CA0010926D0180916D0180936C011092D5
:1010A000B7018091B7018093B6017894089590912B
:1010B0006C019F5F923108F090E080916D0120E01B
:1010C000891321E0822F0895282F90916C019F5F52
:1010D000923108F090E080916D018917E1F3E92FDA
:1010E000F0E0E65AFE4F208390936C0188EB8093EA
:1010F000C90008959091B6018091B70120E098133E
:1011000021E0822F08959091B6018091B701981740
:10111000D1F39091B7019F5F983408F090E0E92FE8
:10112000F0E0E259FE4F80819093B70108951F923D
:101130000F920FB60F9211248F939F93EF93FF930B
:1011400090916C0180916D01981721F488E980934A
:10115000C9000FC090916D019F5F923108F090E03F
:10116000E92FF0E0E65AFE4F80818093CE00909305
:101170006D01FF91EF919F918F910F900FBE0F9096
:101180001F9018951F920F920FB60F9211242F9354
:101190008F939F93EF93FF932091CE009091B60190
:1011A0009F5F983408F090E08091B701981739F06C
:1011B000E92FF0E0E259FE4F20839093B601FF91B2
:1011C000EF919F918F912F910F900FBE0F901F90D5
:1011D0001895DA019330B1F0943028F4913041F051
:1011E000923079F50AC0913211F1923251F524C052
:1011F000E2E0F5E022E130E028C0E4E1F5E029E2B8
:1012000030E023C0813049F0813018F08230C9F4D9
:101210000AC0EDE3F5E0849103C0E1E4F5E08491D8
:10122000282F30E012C0EFE5F5E08491F9CFE6E237
:10123000F5E029E030E009C0ECEAF4E026E530E032
:1012400004C0E0E0F0E020E030E0ED93FC93C90161
:1012500008956091B8017091B9018091BA0190919F
:10126000BB0108950895089508956CCE08950F93D5
:101270001F93DF93CF93CDB7DEB72F970FB6F894B8
:10128000DEBF0FBECDBF288739874A875B876C8753
:101290007D878E879F8780910202843009F047C046
:1012A00082E08093E9008091E80082FF14C0809181
:1012B000E80085FF0BC08E010F5F1F4FC80167E07C
:1012C00070E040E050E077DA8823C1F78091E800D1
:1012D0008B778093E80081E08093E9008091E800BB
:1012E00080FF25C08E01085F1F4FC80168E070E0D5
:1012F00040E050E0B2DA8823C1F78091E8008E77B1
:101300008093E8008091B8019091B901A091BA0151
:10131000B091BB010196A11DB11D8093B8019093BE
:10132000B901A093BA01B093BB0181E001C080E094
:101330002F960FB6F894DEBF0FBECDBFCF91DF91D1
:101340001F910F91089582E060EC42E3D8DA81E0CA
:1013500061EC42E3D4CA089580E0089580E00895E6
:1013600008956A5F6093BE01962F909590930B024B
:1013700080930C028BE092E070E052CE982F809127
:10138000BE01882311F080E0089590930D024093F0
:101390000E0250930F02609310027093110280E2CC
:1013A00065E0DFDF81E00895EF92FF920F931F93D6
:1013B0007B018C018091BE01882311F080E014C074
:1013C000E0920D02F0920E0200930F0210931002B1
:1013D000209311023093120240931302509314028F
:1013E00084E168E0BEDF81E01F910F91FF90EF90F4
:1013F00008959B01AC018091BE01882311F080E02B
:10140000089520930D0230930E0240930F025093E3
:10141000100281E164E0A5DF81E008959B01AC0149
:101420008091BE01882311F080E0089520930D0281
:1014300030930E0240930F025093100280E164E05B
:1014400090DF81E008959C018091BE01882311F016
:1014500080E0089530930E0220930D0287E062E051
:1014600080DF81E0089560930D0270930E028093F7
:101470000F029093100286E064E073DF81E008952C
:1014800060930D0270930E0280930F0290931002EE
:1014900085E064E066DF81E0089580930D0283E0DB
:1014A00061E05FDF81E0089580930D0282E061E0FA
:1014B00058DF81E0089580930D0281E061E051DF03
:1014C00081E008958091BE01882311F080E00895A5
:1014D00080E060E046DF81E00895EF92FF920F9395
:1014E0001F93FB01833409F470C0843440F48134C9
:1014F00031F1823408F040C0803439F408C08434BB
:1015000009F484C0863409F48EC080E094C044306D
:1015100009F08BC080819181A281B3810196A11DC8
:10152000B11D8093480190934901A0934A01B09363
:101530004B0160817181828193815BDF7BC044308C
:1015400009F073C08EE08093BE0181EF80930B029F
:1015500084E180930C0280819181A281B381809388
:101560000D0290930E02A0930F02B09310028AE036
:1015700091E8A6E7B8E71CC0443009F056C08EE0F9
:101580008093BE0181EF80930B0284E180930C0273
:1015900080819181A281B38180930D0290930E028C
:1015A000A0930F02B093100280E298ECA6E7B8E790
:1015B0008093110290931202A0931302B09314022D
:1015C0008BE092E06EE070E01FC0443071F58BE07C
:1015D0008093BE0184EF80930B0282E180930C0222
:1015E00080819181A281B38180930D0290930E023C
:1015F000A0930F02B09310028091BC01809311025E
:101600008BE092E06BE070E00BDD14C0443069F4D5
:10161000E080F180028113811CDE9B01AC01C801D6
:10162000B701C2DE07C0443019F0842F44DF02C086
:10163000CB0196DE81E01F910F91FF90EF9008950E
:10164000833018F4813038F414C0843021F08131B3
:1016500061F080E0089582E18093BE01EBE0F2E06A
:10166000DF011D928A95E9F704C0443021F0842FF0
:1016700022DF81E00895CB016EDE81E008950F93B3
:101680001F9338DD882319F41092C00168C01091AF
:10169000BF0139DDE12FF0E0E35EFD4F80831F5F86
:1016A0001093BF0180911D02082F0095113059F54C
:1016B000882359F41092BF018091C001813009F054
:1016C00001DF81E08093C0014AC0063010F0033191
:1016D000D0F01092BF018091C001823011F0802FB4
:1016E000EADE82E08093C00139C004DD8823B1F1D5
:1016F0001091BF0108DDE12FF0E0E35EFD4F808334
:101700001F5F1093BF012091BF01201770F330E0DD
:10171000245030406FEF7FEF8FEF9FEF4DE152E0AD
:101720002ADCE091BF01F0E0E75EFD4F20813181CE
:1017300042815381621773078407950759F010920D
:10174000BF018091C001823049F0802FADDE00934F
:10175000BE0104C01092C00182E001C081E01F916F
:101760000F9108958091BE01882389F408959FDC2C
:10177000882311F481E008959091BD01E92FF0E0F4
:10178000E55FFD4F80819F5F9093BD019DDC90914F
:10179000BD018091BE01981750F31092BD011092C7
:1017A000BE0180E00895CF92DF92EF92FF920F93F7
:1017B0001F93D8DF882309F0A3C061DF882311F4C9
:1017C000CBDD9FC0813009F49BC0C090BF018AEF80
:1017D000C80E1092BF01D0901E028FE38D1548F005
:1017E0008D2D6FE172E04C2D2BDF882309F088C02E
:1017F00065C0E0901F02F09020020091210210913C
:101800002202209148013091490140914A015091B2
:101810004B01D801C701821B930BA40BB50B181603
:1018200019061A061B063CF480E4D81621F0CA01FA
:10183000B90126DE65C08D2D807C803481F58D2D2B
:101840006FE172E04C2D49DE882369F4E091C30119
:10185000F091C401309791F18D2D6FE172E04C2D24
:101860000995882359F18091480190914901A091EF
:101870004A01B0914B01E816F9060A071B0709F067
:101880003FC00894E11CF11C011D111DE0924801AC
:10189000F092490100934A0110934B0131C0E216C6
:1018A000F3060407150721F0C801B701B7DD28C00A
:1018B0008091C5019091C601892B19F48D2DEDDD24
:1018C0001FC08DE192E04ADD8823B9F0C801B7015D
:1018D000A5DD8091480190914901A0914A01B09104
:1018E0004B010196A11DB11D8093480190934901C0
:1018F000A0934A01B0934B0103C0C801B701B3DD07
:1019000081E01F910F91FF90EF90DF90CF900895AD
:10191000EF92FF920F931F9320914C0130914D0154
:1019200040914E0150914F01DA01C9016DE0880FDD
:10193000991FAA1FBB1F6A95D1F782279327A42757
:10194000B5277C018D0121E116950795F794E79461
:101950002A95D1F7E826F9260A271B27A80197011F
:1019600085E0220F331F441F551F8A95D1F72E257E
:101970003F254027512720934C0130934D01409340
:101980004E0150934F01B901CA011F910F91FF9071
:10199000EF900895FC01DB01118210821D921C92D0
:1019A000FA0110820895089590E0FC01EB57FA4F78
:1019B000E49123E3629FB0011124680F791FE627A9
:1019C00087EC90E0E89F802D112408951F93CF931A
:1019D000DF93CBECD1E010E0812F6091CA01E4DF0E
:1019E00089931F5F1333C1F7DF91CF911F91089542
:1019F000DF92EF92FF920F931F9393E0899FC001B4
:101A00001124F82EE090CA016E2DCEDFD82E0F2DB6
:101A100010E08F2D8F5F6E2DC7DF05531E4FF8012D
:101A20009181582F592740E020812D2530E0242B2B
:101A3000352BC9011F910F91FF90EF90DF90089512
:101A40000F931F9393E0899F800111240E5F802FD5
:101A50006091CA01A9DFEBECF1E0E00FF11D90818C
:101A6000892790E01F910F9108951F93182FC0DFD1
:101A7000892B19F080E090E009C0812FE1DF20E0A0
:101A8000892B09F021E081E02827822F1F910895FA
:101A9000DF92EF92FF920F931F93F62EE72E93E0C3
:101AA000899FC0011124D82E082F10E06091CA012F
:101AB0007BDF05531E4FF826F801F0828D2D8F5FD6
:101AC0006091CA0171DFE826F801E1821F910F9150
:101AD000FF90EF90DF900895FF920F931F93F62EE3
:101AE00093E0899F800111240E5F802F6091CA01CD
:101AF0005BDFEBECF1E0E00FF11DF826F0821F91C7
:101B00000F91FF900895EF92FF920F931F93CF9341
:101B1000DF938091C901882309F43BC000915201F1
:101B200010915301C0E0D0E071E0E72EF12C8C2F32
:101B30005FDF892B59F4C7010C2E02C0880F991F53
:101B40000A94E2F780959095082319232196CE30C8
:101B5000D10569F710935301009352018EE048DFDD
:101B6000892B19F488E0809354018FE041DF892BA1
:101B700029F480E8809355018093560180E138DF95
:101B8000892B29F480E880935701809358011092A3
:101B9000C901DF91CF911F910F91FF90EF900895B0
:101BA000FF920F931F93CF93DF93ADDF20915201EC
:101BB000309153014091540150915501609156016B
:101BC00070915701809158019091590150DBF82E86
:101BD0004CDBFF2011F411E037C010E0812F08DF4B
:101BE000EC01812F2DDF682F8091C201882321F025
:101BF00000E0C0E0D0E007C0062F209711F0219749
:101C000002C0611101508091CA018F5F8093CA01A7
:101C1000812FBE013DDF812F602F5EDF8091CA01E1
:101C200081508093CA018F5F1F5F1131B9F6809395
:101C3000CA0181E08093C901E091C701F091C80118
:101C4000309709F0099512E3AEDD882311F01150A9
:101C5000D9F78F2DDF91CF911F910F91FF900895AC
:101C6000DF92EF92FF920F931F93CF93DF93F82EA3
:101C7000E62ED42EE9018091C201882319F090DF6D
:101C800081E01DC0FF2011F410E101C01FE0812F91
:101C9000ECDE8823A1F0812FBE01FADE812F602FB8
:101CA0001BDFFF2029F0E0925501D092560104C0BD
:101CB000E0925701D092580181E08093C901DF91F1
:101CC000CF911F910F91FF90EF90DF9008950F93A8
:101CD0001F93CF93DF93082FEB01142F8091C20144
:101CE000882319F05DDF81E00FC08EE0BEDE88231F
:101CF00059F08EE0BE01CCDE8EE0612FEDDE009368
:101D0000540181E08093C901DF91CF911F910F9120
:101D100008956F927F928F929F92AF92BF92CF92CF
:101D2000DF92EF92FF920F931F93CF93DF936C019B
:101D30005B01742E8091C201882311F031DF44C011
:101D4000C0E0D0E001E010E0C8010C2E02C0880F16
:101D5000991F0A94E2F78C219D21892B21F08C2F69
:101D600084DE882391F12196CE30D10569F7009168
:101D7000520110915301C0E0D0E0E1E08E2E912C91
:101D80006624639474010C2E02C0EE0CFF1C0A94AE
:101D9000E2F7C7018C219D21892B71F08C2F65DE24
:101DA000882351F08C2FB50173DE8C2F672D94DEC4
:101DB0000E291F296092C9012196CE30D10511F755
:101DC000109353010093520181E0DF91CF911F9155
:101DD0000F91FF90EF90DF90CF90BF90AF909F90CA
:101DE0008F907F906F9008951F9311E005C010E0D1
:101DF0008091C201882361F4D3DE8823C1F31123CB
:101E000039F08091C201882319F481E090E01BDB56
:101E10001F91089541C1089580C00895CF93DF9325
:101E20009B01EA016530710510F425E030E0B9014D
:101E3000A90120E051D1CE01EFDFDF91CF910895CC
:101E400080E390E06AE070E048E250E0E7DF84E0A1
:101E500090E06AE070E04CE850E0E0DF409108017B
:101E60005091090180E090E16AE070E0D7CF83E50E
:101E700097E0D2DF80E490E06AE070E049E457E068
:101E8000CDDFF8CF0F931F930091500110915101B6
:101E90002AEC3CE030935101209350010E94FA0259
:101EA00010935101009350011F910F9108950F93CA
:101EB0001F93CF93DF938C01C0E0D0E00BC081E093
:101EC000E1DF89E190E0A8DF80E0DCDF89E190E0FC
:101ED000A3DFE296C017D10790F3DF91CF911F9156
:101EE0000F9108958093BC0184B7877F84BF88E1F8
:101EF0000FB6F89480936000109260000FBEE1E688
:101F0000F0E080E88083108260E072EC81E090E095
:101F1000A2D80E944E05789459CD0F931F93CF936A
:101F2000DF938C018091C201882341F4C0E0D0E0AE
:101F300002C05ADF2196C017D107D8F3DF91CF91A5
:101F40001F910F910895DF92EF92FF920F931F93CD
:101F5000CF93DF937C01EB01D42EDADC162F1370C4
:101F60001330D9F300E0113029F0113030F0123085
:101F700051F406C0ECE2F0E108C0E3E3F0E105C093
:101F8000E5E2F0E102C0E0E0F0E0C701BE014D2D66
:101F90000995882311F081E008C01F5F133009F410
:101FA00010E00F5F0330F9F680E0DF91CF911F91D1
:101FB0000F91FF90EF90DF900895DF92EF92FF92E4
:101FC0000F931F93CF93DF938C017B01EA01D22EF5
:101FD0008091C201882311F009C006DFC801BE014B
:101FE0004D2DB1DF8823C9F3C70197DFDF91CF9172
:101FF0001F910F91FF90EF90DF90089545E050E022
:1020000023E0DBCF0F93FA01022F6230710591F0CC
:102010006330710518F4672B41F00AC06430710514
:1020200059F06630710521F40AC060E840E009C04B
:1020300060E806C06FEF04C060E84FEF02C060E0E8
:1020400040E89F010DDE0F910895FC01DB01242F74
:1020500080E0BF01AD01D6CFFC01DB01242F81E080
:10206000BF01AD01CFCF8230910581F08330910562
:1020700018F4892B39F008C08430910549F006978F
:1020800019F408C080E007C088E005C082E003C002
:1020900084E001C086E01BCEEF92FF920F931F9366
:1020A000CF93DF937C018B018091C201882369F477
:1020B000C0E0D0E007C0C70165E070E043E029DE82
:1020C00093DE2196C017D107B0F3DF91CF911F9116
:1020D0000F91FF90EF9008950F931F93DF93CF938D
:1020E00000D000D00F92CDB7DEB78C017A83698320
:1020F0005C834B832D838091C2018823C9F4E091D6
:102100005001F0915101CE010196BE016D5F7F4FEC
:10211000AE014B5F5F4F099501C066DE6B817C812C
:10212000C8014D81F6DD8823C1F389819A81F5DEEE
:102130000F900F900F900F900F90CF91DF911F9104
:102140000F91089545E050E023E0C6CF23E0C4CFCF
:10215000882339F080E090E16AE070E04AE550E0E1
:1021600006C080E090E16AE070E04EEB50E056DEA1
:1021700080E090E16AE070E040E050E04FCE0F93E5
:102180001F93082F82E090E064E070E037DF82E088
:1021900090E064E070E032DF84E090E063E070E0C3
:1021A0002DDF84E090E064E070E028DF82E090E0E2
:1021B00060E070E023DF84E090E063E070E0C2DF85
:1021C00084E090E063E070E0BDDF10E084E090E048
:1021D00063E070E013DF1F5F1133C1F782E090E02E
:1021E00068E270E00BDF84E090E063E070E006DF1F
:1021F00084E090E063E070E001DF84E090E063E081
:1022000070E0FCDE84E090E063E070E0F7DE84E004
:1022100090E063E070E096DF10E084E090E063E03F
:1022200070E0ECDE1F5F1A30C1F784E090E060E000
:1022300070E0E4DE002309F47AC084E090E064E119
:1022400070E04AE050E082DF10E006C084E090E0F9
:1022500063E070E0D3DE1F5F1B33C1F784E090E0E2
:1022600060E070E0CBDE84E090E063E070E06ADF85
:1022700082E090E063E070E0C1DE10E006C084E040
:1022800090E063E070E0BADE1F5F1B33C1F784E0CB
:1022900090E060E070E0B2DE84E090E063E070E047
:1022A00051DF82E090E063E070E0A8DE82E090E041
:1022B00063E070E0A3DE82E090E060E070E09EDE2C
:1022C00084E090E064E170E04AE050E03FDF84E0C9
:1022D00090E064E170E04AE050E038DF86E090E0B2
:1022E00063E070E08BDE86E090E063E070E086DE25
:1022F00086E090E063E070E081DE80E090E062E004
:1023000070E07CDE86E090E063E070E077DE80E005
:1023100090E062E070E072DE86E090E063E070E002
:102320006DDE80E090E062E070E068DE3BC084E05B
:1023300090E064E170E04AE050E008DF80E090E087
:1023400060E070E05BDE84E090E062E070E0FADE86
:1023500082E090E063E070E051DE80E090E062E0D7
:1023600070E04CDE82E090E063E070E047DE84E005
:1023700090E060E070E0E6DE82E090E063E070E034
:102380003DDE82E090E063E070E038DE82E090E0E5
:1023900060E070E033DE84E090E064E170E04AE009
:1023A00050E0D4DE81E0D4DE1F910F9108956F924A
:1023B0007F928F929F92AF92BF92DF92EF92FF92A5
:1023C0000F931F93CF93DF930E94B90783E28ADDB7
:1023D00080910601909107016ADD32DD8090000155
:1023E00090900101A0900201B0900301609004015F
:1023F00070900501C0E0D0E0EE24FF2487018CE35B
:10240000D82E5FC080E0B801A7010E94BE098BE30F
:102410008D1520F481E0B3DEDD2402C080E0AFDE64
:1024200082E090E06AE570E0F5DC84E090E06AE04C
:1024300070E04AE050E0F2DC80E490E061E871E0B6
:10244000E9DC82E090E06CEB72E0E4DC61147104A2
:1024500011F12196C615D705F0F082E090E06AEF01
:1024600070E0D8DC409110015091110188E090E0BB
:1024700064E170E0D3DC80E290E064E170E04AEF78
:1024800050E0CCDC80E490E064E170E047E751E0AC
:10249000C5DCC0E0D0E0D39480E090E16AE070E079
:1024A00045E050E0BBDC60911401709115016F5064
:1024B000704082E090E0AEDC0894E11CF11C011D4C
:1024C000111DE814F9040A051B0508F49BCF0E94AE
:1024D000B707CDDC80E090E0DF91CF911F910F91A5
:1024E000FF90EF90DF90BF90AF909F908F907F9084
:1024F0006F900895A1E21A2EAA1BBB1BFD010DC00F
:10250000AA1FBB1FEE1FFF1FA217B307E407F507A3
:1025100020F0A21BB30BE40BF50B661F771F881F7F
:10252000991F1A9469F760957095809590959B0115
:10253000AC01BD01CF010895FB01DC0102C0059093
:0E2540000D9241505040D8F70895F894FFCF07
:10254E00A086010000007102780001012003E8035B
:10255E007800FA0064007D007701C800FA00770168
:10256E00FA00C40977015F057D0071025000770102
:10257E006E007701F4017701E457140050005A0001
:10258E002C012C01FA00FA0001000000381EE7971A
:0A259E00D30C00000880808080004C
:00000001FF
