:10000000DBC20000F6C20000F4C20000F2C2000031
:10001000F0C20000EEC20000ECC20000EAC2000024
:10002000E8C20000E6C2000056C50000E2C20000BF
:10003000E0C20000DEC20000DCC20000DAC2000044
:10004000D8C20000D6C20000D4C20000D2C2000054
:10005000D0C20000CEC20000CCC20000CAC2000064
:10006000C8C200000C94C2080C949708C2C20000D9
:10007000C0C20000BEC20000BCC20000BAC2000084
:10008000B8C20000B6C20000B4C20000B2C2000094
:10009000B0C20000AEC20000ACC20000AAC20000A4
:1000A000A8C20000A6C20000A4C200000000000018
:1000B00003836BF2F7703BE1F4F350131F979AC779
:1000C0001C14F135E8E7A126EB64CAD4CF58D98ACD
:1000D000CCDBB2783828E26B3BAB8999D0CF434D6B
:1000E000D34C28BF27BF78AC243C135E6FC75E108B
:1000F0006C4435E298B765F19B340E037050C4D759
:1001000073D3AF258720FF3684A394C4A09F879A1A
:10011000A31CEC6857EFBC7B546CD789BF081D5DEE
:10012000BC8B76AF487826BC4BFB4D4EDE8EBD2097
:10013000DD0DD6D229FE86C12A7DED33C11927E710
:10014000C29A4C1536691C0635EA77F411D664AAB2
:1001500012550F58E6A65F4BE52534B90E41FE6DEA
:100160000DC2959FF931C58CFAB2AE7EB149E3302C
:10017000B2CA88C24639D8D145BAB323AEDE79F7C0
:10018000AD5D120559AE42165A2D29E47E113ABAD8
:100190007D9251488961015B8AE26AA96186A07DEE
:1001A0006205CB8F96F69B9C9575F06EBC1D7B41CE
:1001B000BF9E10B34B6D40A048EE2B52A38AE18640
:1001C000A0098A7454FADA675779B1957345A2CBBE
:1001D00070C6C9398435992A87B6F2D86CD2380CE2
:1001E0006F5153FE9BA203ED9821681FD3DA25516E
:1001F000D0594EA324AA1EB027297542CC4DBF96D4
:10020000CFCED4643B3D847738BEEF851C82FCDBC7
:100210001F019729EBF2C73AE871ACC80315661CB9
:1002200000960DEEF4655DFDF7E6360F6293C6614C
:100230006110AD9395E3FD80966096727D045CA697
:100240007E8737548A74674789F70CB5ADCB1FEBAF
:10025000AE4874195ABB240A59384FF8B25C852C41
:10026000B1DFEEDE452CBECD46AFD53F0D549871C3
:100270000ED7F383FA24A390F9A7C86212C302B67B
:1002800011406944E5B33957E63052A5C20C41FB31
:10029000C18F2A09357C7A1A36FF11E8DD9BDB3CD9
:1002A000DE18B0CE2AEBE0DD29688B2F783BF68292
:1002B0007BB89D708F4BCD638CC8A69167AC6C45A5
:1002C000642F07B790DC57A4935F3C56B7632F08A1
:1002D000B4E044FA401314E943907F1BA8F4B5CF6F
:1002E000AB77DE3D5F848E2E5C07E5DC17FCA892C1
:1002F000147FC360E08C9373E30FF881086B325571
:100300000BE859A7FF1B09B4FC986246D8A47118E2
:10031000DB271AEA2FD44AF92C57210BC733EBDF1E
:10032000C4B0802D3043D03E33C0BBCCA6B54BA269
:10033000A536205051C5704352461BB1B922D16534
:10034000BAA1BA974E52EA844DD1817669ED9228CE
:100350006A6EF9DA9E9DA9C99D1EC23B767A08EFA6
:1003600075F9631D810A330E828958FCC97215B272
:10037000CAF17E403E022E533D8145A1D6E58F75E0
:10038000D566E4872195B4942216DF66062ACC3818
:1003900005A9A7CAF15AF7D9F2D99C2B19BD56FF66
:1003A0001A3E3D0DEECD6D1EED4E06ECC4268DC3FE
:1003B000C7A5E6313356B62230D5DDD0DBB1170400
:1003C000D8327CF62CC12CE52F4247170B7E5449BE
:1003D00008FD3FBBFC0E6FA8FF8D045A14E9CE8EBA
:1003E000176AA57CE399F56FE01A9E9DABE1D3D324
:1003F000A862B8215C91E8325F1283C0B4764914D8
:10040000B7F522E6430672F54085190764B90A5923
:10041000673A61AB93C931B8904A5A4A7B2E909E95
:1004200078ADFB6C8C5EAB7F8FDDC08D1AA830E39E
:10043000192B5B11EDD80B02EE5B60F0053FAA248F
:1004400006BCC1D6F24F91C5F1CCFA37D5F0E969B7
:10045000D673829B2280D2882103B97ACA6773AE91
:10046000C9E4185C3D17484F3E9423BD756F6EF389
:1004700076EC0501821F5512819C3EE06AF8F43447
:10048000697B9FC69D88CFD59E0BA427BA37B779C5
:10049000B9B4DC8B4D478C984EC4E76AA5A02DBE3D
:1004A000A623464C52D0165F51537DAD0501090578
:1004B000A1011500250135004501750195100509BB
:1004C00019012910810205012507463B0175049594
:1004D0000165140939814265009501810126FF00FB
:1004E00046FF000930093109320935750895048144
:1004F000020600FF0920950181020A212695089134
:1005000002C012010002000000400D0F9200000125
:10051000010200010902290001010080FA0904001A
:10052000000203000000092111010001225600070A
:100530000502034000080705810340000804030981
:10054000041C0348004F0052004900200043004FA4
:10055000002E002C004C00540044002E000000240B
:100560000350004F004B004B0045004E002000435D
:10057000004F004E00540052004F004C004C00450C
:100580000052000000D5738162EED5E1EB87FB32AB
:1005900090FD4C66EF8B83F4D8CD3598F89A070818
:1005A000C5E3DEEF34208E99125EC41094D3948A92
:1005B0000D8A77CD128360E611241FBECFEFDAE0FB
:1005C000DEBFCDBF11E0A0E0B1E0ECE2F3E202C09B
:1005D00005900D92A635B107D9F712E0A6E5B1E076
:1005E00001C01D92AD32B107E1F70E9444110C9495
:1005F000941106CD882319F028985D980895289ABB
:100600005D9A0895209A559A80E0F4CF9C0140911C
:100610000702509108024617570718F4F90190E0B5
:1006200043C06115710511F0AB01F8CF8091E8006E
:100630008E778093E80040E050E0F0CF8091000298
:10064000882309F447C0853009F446C08091E8004A
:1006500083FD44C08091E80082FD36C08091E800AF
:1006600080FF22C08091F3009091F200782F60E02B
:10067000292F30E0262B372B07C081918093F10082
:10068000415050402F5F3F4F4115510519F0203424
:10069000310598F390E02034310509F491E0809120
:1006A000E8008E778093E8004115510539F69923CB
:1006B00029F60AC080910002882361F0853061F03C
:1006C0008091E80083FD0AC08091E80082FFF2CFAC
:1006D00080E0089582E0089583E0089581E0089520
:1006E0009C0140910702509108024617570718F4E1
:1006F000F90190E044C06115710511F0AB01F8CF2C
:100700008091E8008E778093E80040E050E0F0CFE1
:1007100080910002882309F448C0853009F447C05D
:100720008091E80083FD45C08091E80082FD37C0DC
:100730008091E80080FF23C08091F3009091F20047
:10074000782F60E0292F30E0262B372B08C08491CA
:100750008093F1003196415050402F5F3F4F41153B
:10076000510519F02034310590F390E02034310523
:1007700009F491E08091E8008E778093E8004115BC
:10078000510531F6992321F60AC080910002882391
:1007900061F0853061F08091E80083FD0AC08091AE
:1007A000E80082FFF2CF80E0089582E0089583E0C0
:1007B000089581E00895BF92CF92DF92EF92FF9269
:1007C0000F931F93CF93DF93182F092F7B016A019B
:1007D000EFD0B82E8823B1F5812F902F9C01E9012D
:1007E000C114D10439F0F60180819181E81AF90A27
:1007F000C80FD91F00E010E022C08091E80085FDFD
:1008000016C08091E8008B778093E8009BD3C114D9
:10081000D10449F0F60180819181800F911F91836D
:10082000808385E010C0C4D0882349F00CC080913B
:10083000F10089930894E108F1080F5F1F4FE1145C
:10084000F104D9F68B2DDF91CF911F910F91FF907D
:10085000EF90DF90CF90BF900895BF92CF92DF923C
:10086000EF92FF920F931F93CF93DF93182F092FCF
:100870007B016A019DD0B82E8823B1F5812F902F7E
:100880009C01E901C114D10439F0F6018081918104
:10089000E81AF90AC80FD91F00E010E022C08091C1
:1008A000E80085FD16C08091E8008E778093E8000F
:1008B00049D3C114D10449F0F60180819181800FA0
:1008C000911F9183808385E010C072D0882349F006
:1008D0000CC089918093F1000894E108F1080F5F42
:1008E0001F4FE114F104D9F68B2DDF91CF911F91A9
:1008F0000F91FF90EF90DF90CF90BF900895382F29
:10090000282F2EC0822F8F708093E900231721F4A7
:10091000762F942F50E006C07091EC009091ED007E
:100920005091F00091FF1BC08091EB008E7F80936F
:10093000EB008091ED008D7F8093ED008091EB00C6
:1009400081608093EB007093EC009093ED005093E6
:10095000F0008091EE0087FD02C080E008952F5FD7
:10096000273080F23F703093E90081E00895809154
:10097000010288239CF404C0809100028823B9F00E
:100980008091E80082FFF8CF8091E8008B77809318
:10099000E800089580910002882349F08091E800E2
:1009A00080FFF8CF8091E8008E778093E80008956B
:1009B0004091E4005091E50024E68091EC0080FF36
:1009C00024C08091E80080FD1EC080910002882331
:1009D00011F482E00895853011F483E00895809148
:1009E000EB0085FF02C081E008958091E4009091C2
:1009F000E5008417950709F3222311F484E0089594
:100A00002150AC01DACF80E008958091E80082FFA8
:100A1000DCCFF9CFEF92FF920F931F934FD056D0B8
:100A200008ED10E0F80180818F77808380818068F5
:100A3000808380818F7D808319BC10920002109288
:100A4000FC011092FE011092FD0180EEE82EF12CC7
:100A5000F70180818B7F8083F801808181608083B2
:100A600080E060E042E34BDFE1EEF0E080818E7FEA
:100A70008083E2EEF0E08081816080838081886005
:100A80008083F70180818E7F8083F801808180617F
:100A900080831F910F91FF90EF900895E8EDF0E0B3
:100AA00080818F7E8083E7EDF0E0808181608083AC
:100AB00084E082BF81E08093FF01ACCFE8EDF0E0FD
:100AC00080818E7F80831092E20008951092DA0078
:100AD0001092E10008951F920F920FB60F92112409
:100AE0002F933F934F935F936F937F938F939F9336
:100AF000AF93BF93EF93FF938091E10082FF0AC011
:100B00008091E20082FF06C08091E1008B7F80939C
:100B1000E10017D28091DA0080FF1DC08091D800DB
:100B200080FF19C08091DA008E7F8093DA00809177
:100B3000D90080FF0CC080E189BD82E189BD09B484
:100B400000FEFDCF81E0809300028CD304C019BC6D
:100B50001092000288D38091E10080FF18C080913C
:100B6000E20080FF14C08091E2008E7F8093E2005B
:100B70008091E20080618093E2008091D8008062E1
:100B80008093D80019BC85E080930002DAD180916F
:100B9000E10084FF2FC08091E20084FF2BC080E140
:100BA00089BD82E189BD09B400FEFDCF8091D800E6
:100BB0008F7D8093D8008091E1008F7E8093E1004B
:100BC0008091E2008F7E8093E2008091E20081605C
:100BD0008093E2008091FC01882311F084E007C03B
:100BE0008091E30087FD02C081E001C083E0809333
:100BF0000002A7D18091E10083FF22C08091E20032
:100C000083FF1EC08091E100877F8093E10082E036
:100C1000809300021092FC018091E1008E7F80930E
:100C2000E1008091E2008E7F8093E2008091E200FB
:100C300080618093E20080E060E042E360DE81D189
:100C4000FF91EF91BF91AF919F918F917F916F91A4
:100C50005F914F913F912F910F900FBE0F901F907A
:100C600018951F93DF93CF93CDB7DEB7AC970FB630
:100C7000F894DEBF0FBECDBFE1E0F2E08091F1005D
:100C8000819322E0E930F207C9F7EED28091E800C3
:100C900083FF3FC18091010230910202353009F497
:100CA0008DC0363040F43130E1F1313070F0333006
:100CB00009F02FC136C0383009F4FDC0393009F4CD
:100CC0000CC1363009F025C19CC0803821F0823833
:100CD00009F01FC108C09091FD018091FE01882399
:100CE000B1F0926014C0809105028F70873008F0D7
:100CF00010C18093E9008091EB0090E025E096958B
:100D000087952A95E1F7982F91701092E9008091CC
:100D1000E800877F8093E8009093F1001092F10043
:100D2000D5C0882319F0823009F0F3C090E08F71AC
:100D30009070009721F0029709F0EBC00CC08091F1
:100D40000302813009F0E5C01092FE01333081F5D5
:100D50008093FE012DC080910302882349F52091E4
:100D600005022F70822F8150863008F0D2C0209368
:100D7000E9008091EB0080FF1BC0333021F48091AB
:100D8000EB00806213C08091EB0080618093EB00E8
:100D900081E090E002C0880F991F2A95E2F78093C6
:100DA000EA001092EA008091EB0088608093EB00EB
:100DB0001092E9008091E800877F8BC0882309F0BA
:100DC000A8C0109103021F778091E3008078812BE7
:100DD0008093E3008091E800877F8093E800C7DD7F
:100DE0008091E80080FFFCCF8091E30080688093D1
:100DF000E300112311F482E001C083E0809300023C
:100E000088C08058823008F084C08091030290919D
:100E1000040223E08C3D920709F033C083E08C8309
:100E20008AE28B837FB7F894DE0115966EE040E08E
:100E300050E011E2E62FF0E010935700849140FF5C
:100E400003C082958F706F5F8F70282F30E08A30DB
:100E500018F0C901C79602C0C901C0968D939D9331
:100E60004F5F5F4F4431510529F77FBF8091E80004
:100E7000877F8093E800CE0103966AE270E0C6DBCC
:100E800014C06091050270910602AE014F5F5F4F82
:100E9000A0D1BC01009709F43CC08091E800877F95
:100EA0008093E80089819A811BDC8091E8008B7730
:100EB0008093E8002EC0803861F58091E800877F3C
:100EC0008093E8008091FC018093F1008091E8001C
:100ED0008E778093E8004BDD1CC08823D1F490917D
:100EE00003029230B0F48091E800877F8093E8009D
:100EF0009093FC013CDD8091FC01882331F48091CA
:100F0000E30087FD02C081E001C084E0809300021D
:100F10001AD28091E80083FF0AC08091E800877FA1
:100F20008093E8008091EB0080628093EB00AC96A8
:100F30000FB6F894DEBF0FBECDBFCF91DF911F91EA
:100F4000089508951F9380910002882371F01091F5
:100F5000E9008091EC001092E9008091E80083FFA5
:100F600001C07FDE1F701093E9001F91089581E09A
:100F700041CB48CB08956F927F928F929F92AF9210
:100F8000BF92CF92DF92EF92FF920F931F93DF9366
:100F9000CF9300D000D0CDB7DEB77B018C014A01E2
:100FA0005901CC24DD243E010894611C711C20C031
:100FB000F401EC0DFD1D60816E2570E0660F771F5A
:100FC000660F771F64557F4FC30144E050E00E94D5
:100FD0008B11EF2CF02E012F112789819A81AB8183
:100FE000BC81E826F9260A271B270894C11CD11CBE
:100FF000CA14DB04E8F2B701C8010F900F900F90FC
:101000000F90CF91DF911F910F91FF90EF90DF90A4
:10101000CF90BF90AF909F908F907F906F900895EA
:10102000EF92FF920F931F937C018B0104501040AD
:101030006FEF7FEF8FEF9FEFA70198019CDF0E0D01
:101040001F1DF80160837183828393831F910F9129
:10105000FF90EF9008959B01AC01F89460E079E077
:101060008DE390E00E946911215030404040504093
:1010700056954795379527953093CD002093CC0012
:1010800082E08093C80088E98093C90086E080935D
:10109000CA0010926B0180916B0180936A011092DB
:1010A000B5018091B5018093B40178940895909131
:1010B0006A019F5F923108F090E080916B0120E01F
:1010C000891321E0822F0895282F90916A019F5F54
:1010D000923108F090E080916B018917E1F3E92FDC
:1010E000F0E0E85AFE4F208390936A0188EB8093EA
:1010F000C90008959091B4018091B50120E0981342
:1011000021E0822F08959091B4018091B501981744
:10111000D1F39091B5019F5F983408F090E0E92FEA
:10112000F0E0E459FE4F80819093B50108951F923D
:101130000F920FB60F9211248F939F93EF93FF930B
:1011400090916A0180916B01981721F488E980934E
:10115000C9000FC090916B019F5F923108F090E041
:10116000E92FF0E0E85AFE4F80818093CE00909303
:101170006B01FF91EF919F918F910F900FBE0F9098
:101180001F9018951F920F920FB60F9211242F9354
:101190008F939F93EF93FF932091CE009091B40192
:1011A0009F5F983408F090E08091B501981739F06E
:1011B000E92FF0E0E459FE4F20839093B401FF91B2
:1011C000EF919F918F912F910F900FBE0F901F90D5
:1011D0001895DA019330B1F0943028F4913041F051
:1011E000923079F50AC0913211F1923251F524C052
:1011F000E2E0F5E022E130E028C0E4E1F5E029E2B8
:1012000030E023C0813049F0813018F08230C9F4D9
:101210000AC0EDE3F5E0849103C0E1E4F5E08491D8
:10122000282F30E012C0EFE5F5E08491F9CFE6E237
:10123000F5E029E030E009C0ECEAF4E026E530E032
:1012400004C0E0E0F0E020E030E0ED93FC93C90161
:1012500008956091B6017091B7018091B8019091A5
:10126000B90108950895089508956CCE08950F93D7
:101270001F93DF93CF93CDB7DEB72F970FB6F894B8
:10128000DEBF0FBECDBF288739874A875B876C8753
:101290007D878E879F8780910002843009F047C048
:1012A00082E08093E9008091E80082FF14C0809181
:1012B000E80085FF0BC08E010F5F1F4FC80167E07C
:1012C00070E040E050E077DA8823C1F78091E800D1
:1012D0008B778093E80081E08093E9008091E800BB
:1012E00080FF25C08E01085F1F4FC80168E070E0D5
:1012F00040E050E0B2DA8823C1F78091E8008E77B1
:101300008093E8008091B6019091B701A091B80157
:10131000B091B9010196A11DB11D8093B6019093C2
:10132000B701A093B801B093B90181E001C080E09A
:101330002F960FB6F894DEBF0FBECDBFCF91DF91D1
:101340001F910F91089582E060EC42E3D8DA81E0CA
:1013500061EC42E3D4CA089580E0089580E00895E6
:1013600008956A5F6093BC01962F9095909309024F
:1013700080930A0289E092E070E052CE982F80912B
:10138000BC01882311F080E0089590930B024093F4
:101390000C0250930D0260930E0270930F0280E2D4
:1013A00065E0DFDF81E00895EF92FF920F931F93D6
:1013B0007B018C018091BC01882311F080E014C076
:1013C000E0920B02F0920C0200930D0210930E02B9
:1013D00020930F0230931002409311025093120297
:1013E00084E168E0BEDF81E01F910F91FF90EF90F4
:1013F00008959B01AC018091BC01882311F080E02D
:10140000089520930B0230930C0240930D025093E9
:101410000E0281E164E0A5DF81E008959B01AC014B
:101420008091BC01882311F080E0089520930B0285
:1014300030930C0240930D0250930E0280E164E061
:1014400090DF81E008959C018091BC01882311F018
:1014500080E0089530930C0220930B0287E062E055
:1014600080DF81E0089560930B0270930C028093FB
:101470000D0290930E0286E064E073DF81E0089530
:1014800060930B0270930C0280930D0290930E02F6
:1014900085E064E066DF81E0089580930B0283E0DD
:1014A00061E05FDF81E0089580930B0282E061E0FC
:1014B00058DF81E0089580930B0281E061E051DF05
:1014C00081E008958091BC01882311F080E00895A7
:1014D00080E060E046DF81E00895EF92FF920F9395
:1014E0001F93FB01833409F470C0843440F48134C9
:1014F00031F1823408F040C0803439F408C08434BB
:1015000009F484C0863409F48EC080E094C044306D
:1015100009F08BC080819181A281B3810196A11DC8
:10152000B11D8093440190934501A0934601B0936F
:10153000470160817181828193815BDF7BC0443090
:1015400009F073C08EE08093BC0181EF80930902A3
:1015500084E180930A0280819181A281B38180938A
:101560000B0290930C02A0930D02B0930E028AE03E
:1015700091E8A6E7B8E71CC0443009F056C08EE0F9
:101580008093BC0181EF8093090284E180930A0279
:1015900080819181A281B38180930B0290930C0290
:1015A000A0930D02B0930E0280E298ECA6E7B8E794
:1015B00080930F0290931002A0931102B093120235
:1015C00089E092E06EE070E01FC0443071F58BE07E
:1015D0008093BC0184EF8093090282E180930A0228
:1015E00080819181A281B38180930B0290930C0240
:1015F000A0930D02B0930E028091BA0180930F0266
:1016000089E092E06BE070E00BDD14C0443069F4D7
:10161000E080F180028113811CDE9B01AC01C801D6
:10162000B701C2DE07C0443019F0842F44DF02C086
:10163000CB0196DE81E01F910F91FF90EF9008950E
:10164000833018F4813038F414C0843021F08131B3
:1016500061F080E0089582E18093BC01E9E0F2E06E
:10166000DF011D928A95E9F704C0443021F0842FF0
:1016700022DF81E00895CB016EDE81E008950F93B3
:101680001F9338DD882319F41092BE0168C01091B1
:10169000BD0139DDE12FF0E0E55EFD4F80831F5F86
:1016A0001093BD0180911B02082F0095113059F550
:1016B000882359F41092BD018091BE01813009F058
:1016C00001DF81E08093BE014AC0063010F0033193
:1016D000D0F01092BD018091BE01823011F0802FB8
:1016E000EADE82E08093BE0139C004DD8823B1F1D7
:1016F0001091BD0108DDE12FF0E0E55EFD4F808334
:101700001F5F1093BD012091BD01201770F330E0E1
:10171000245030406FEF7FEF8FEF9FEF4BE152E0AF
:101720002ADCE091BD01F0E0E95EFD4F20813181CE
:1017300042815381621773078407950759F010920D
:10174000BD018091BE01823049F0802FADDE009353
:10175000BC0104C01092BE0182E001C081E01F9173
:101760000F9108958091BC01882389F408959FDC2E
:10177000882311F481E008959091BB01E92FF0E0F6
:10178000E75FFD4F80819F5F9093BB019DDC90914F
:10179000BB018091BC01981750F31092BB011092CD
:1017A000BC0180E00895CF92DF92EF92FF920F93F9
:1017B0001F93D8DF882309F0A3C061DF882311F4C9
:1017C000CBDD9FC0813009F49BC0C090BD018AEF82
:1017D000C80E1092BD01D0901C028FE38D1548F009
:1017E0008D2D6DE172E04C2D2BDF882309F088C030
:1017F00065C0E0901D02F0901E0200911F02109142
:1018000020022091440130914501409146015091C0
:101810004701D801C701821B930BA40BB50B181607
:1018200019061A061B063CF480E4D81621F0CA01FA
:10183000B90126DE65C08D2D807C803481F58D2D2B
:101840006DE172E04C2D49DE882369F4E091C1011D
:10185000F091C201309791F18D2D6DE172E04C2D28
:101860000995882359F18091440190914501A091F7
:101870004601B0914701E816F9060A071B0709F06F
:101880003FC00894E11CF11C011D111DE0924401B0
:10189000F0924501009346011093470131C0E216D2
:1018A000F3060407150721F0C801B701B7DD28C00A
:1018B0008091C3019091C401892B19F48D2DEDDD28
:1018C0001FC08BE192E04ADD8823B9F0C801B7015F
:1018D000A5DD8091440190914501A0914601B09110
:1018E00047010196A11DB11D8093440190934501CC
:1018F000A0934601B093470103C0C801B701B3DD0F
:1019000081E01F910F91FF90EF90DF90CF900895AD
:10191000FC01DB01118210821D921C92FA011082DF
:101920000895089590E0FC01EB57FA4FE49123E30A
:10193000629FB0011124680F791FE62787EC90E0C1
:10194000E89F802D112408951F93CF93DF93C9EC56
:10195000D1E010E0812F6091C801E4DF89931F5F1F
:101960001333C1F7DF91CF911F910895DF92EF926A
:10197000FF920F931F9393E0899FC0011124F82ECB
:10198000E090C8016E2DCEDFD82E0F2D10E08F2DE8
:101990008F5F6E2DC7DF07531E4FF8019181582FBF
:1019A000592740E020812D2530E0242B352BC9011B
:1019B0001F910F91FF90EF90DF9008950F931F9369
:1019C00093E0899F800111240E5F802F6091C801F0
:1019D000A9DFE9ECF1E0E00FF11D9081892790E0AB
:1019E0001F910F9108951F93182FC0DF892B19F0B5
:1019F00080E090E009C0812FE1DF20E0892B09F031
:101A000021E081E02827822F1F910895DF92EF9235
:101A1000FF920F931F93F62EE72E93E0899FC0014C
:101A20001124D82E082F10E06091C8017BDF0753E6
:101A30001E4FF826F801F0828D2D8F5F6091C8014E
:101A400071DFE826F801E1821F910F91FF90EF907E
:101A5000DF900895FF920F931F93F62E93E0899FD6
:101A6000800111240E5F802F6091C8015BDFE9ECDB
:101A7000F1E0E00FF11DF826F0821F910F91FF9029
:101A80000895EF92FF920F931F93CF93DF9380916E
:101A9000C701882309F43BC000914E0110914F010A
:101AA000C0E0D0E071E0E72EF12C8C2F5FDF892BB6
:101AB00059F4C7010C2E02C0880F991F0A94E2F74F
:101AC00080959095082319232196CE30D10569F78A
:101AD00010934F0100934E018EE048DF892B19F4DB
:101AE00088E0809350018FE041DF892B29F480E862
:101AF000809351018093520180E138DF892B29F4D2
:101B000080E880935301809354011092C701DF91C4
:101B1000CF911F910F91FF90EF900895FF920F9337
:101B20001F93CF93DF93ADDF20914E0130914F0192
:101B300040915001509151016091520170915301B7
:101B4000809154019091550192DBF82E8EDBFF209D
:101B500011F411E037C010E0812F08DFEC01812F74
:101B60002DDF682F8091C001882321F000E0C0E0C4
:101B7000D0E007C0062F209711F0219702C0611115
:101B800001508091C8018F5F8093C801812FBE01F1
:101B90003DDF812F602F5EDF8091C80181508093EF
:101BA000C8018F5F1F5F1131B9F68093C80181E0D2
:101BB0008093C701E091C501F091C601309709F00B
:101BC000099512E3F0DD882311F01150D9F78F2D1C
:101BD000DF91CF911F910F91FF900895DF92EF92C7
:101BE000FF920F931F93CF93DF93F82EE62ED42E00
:101BF000E9018091C001882319F090DF81E01DC0C8
:101C0000FF2011F410E101C01FE0812FECDE8823DA
:101C1000A1F0812FBE01FADE812F602F1BDFFF2094
:101C200029F0E0925101D092520104C0E092530198
:101C3000D092540181E08093C701DF91CF911F9131
:101C40000F91FF90EF90DF9008950F931F93CF9324
:101C5000DF93082FEB01142F8091C001882319F026
:101C60005DDF81E00FC08EE0BEDE882359F08EE09C
:101C7000BE01CCDE8EE0612FEDDE0093500181E0ED
:101C80008093C701DF91CF911F910F9108956F92BB
:101C90007F928F929F92AF92BF92CF92DF92EF92FC
:101CA000FF920F931F93CF93DF936C015B01742E10
:101CB0008091C001882311F031DF44C0C0E0D0E042
:101CC00001E010E0C8010C2E02C0880F991F0A9491
:101CD000E2F78C219D21892B21F08C2F84DE882333
:101CE00091F12196CE30D10569F700914E01109106
:101CF0004F01C0E0D0E0E1E08E2E912C6624639489
:101D000074010C2E02C0EE0CFF1C0A94E2F7C7010E
:101D10008C219D21892B71F08C2F65DE882351F059
:101D20008C2FB50173DE8C2F672D94DE0E291F29B1
:101D30006092C7012196CE30D10511F710934F0163
:101D400000934E0181E0DF91CF911F910F91FF90A1
:101D5000EF90DF90CF90BF90AF909F908F907F904B
:101D60006F9008951F9311E005C010E08091C001AD
:101D7000882361F4D3DE8823C1F3112339F08091E5
:101D8000C001882319F481E090E05DDB1F91089584
:101D900035C1089592C00895CF93DF939B01EA0166
:101DA0006530710510F425E030E0B901A90120E0AB
:101DB000EFD0CE01EFDFDF91CF910895CF93DF9386
:101DC0009B01EA016530710510F425E030E0B901AE
:101DD000A90120E033D1CE01DDDFDF91CF9108955D
:101DE00080E390E06AE070E048E250E0E7DF84E002
:101DF00090E06AE070E04CE850E0E0DF40910401E0
:101E00005091050180E090E16AE070E0D7CF83E572
:101E100097E0C0DF80E490E06AE070E049E457E0DA
:101E2000CDDFF8CF0F931F9300914C0110914D011E
:101E300028E83CE030934D0120934C010E94FA02C7
:101E400010934D0100934C011F910F9108950F9332
:101E50001F93CF93DF938C01C0E0D0E00BC081E0F3
:101E6000E1DF89E190E096DF80E0DCDF89E190E06E
:101E700091DFE296C017D10790F3DF91CF911F91C8
:101E80000F9108958093BA0184B7877F84BF88E15A
:101E90000FB6F89480936000109260000FBEE1E6E8
:101EA000F0E080E88083108260E072EC81E090E0F6
:101EB000D2D80E944E05789447CD0F931F93CF93AD
:101EC000DF938C018091C001882341F4C0E0D0E011
:101ED00002C048DF2196C017D107D8F3DF91CF9118
:101EE0001F910F910895CF92DF92EF92FF920F937F
:101EF0001F93DF93CF9300D000D00F92CDB7DEB702
:101F0000C82ED62EF42E3A8329831C830B83ED82B0
:101F10008091C0018823D9F4E0914C01F0914D01EA
:101F2000CE010196BE016D5F7F4FAE014B5F5F4FEB
:101F3000099501C017DF2B813C818C2D6D2D4F2D14
:101F40000D814CDE8823B1F389819A81B6DF0F9031
:101F50000F900F900F900F90CF91DF911F910F91E5
:101F6000FF90EF90DF90CF900895EF920F931F9323
:101F70008901EE24B8DF1F910F91EF900895EF9241
:101F80000F931F93EE24AFDF1F910F91EF900895F1
:101F90001F93DF93CF9300D000D00F92CDB7DEB761
:101FA000182F7A8369835C834B832D838091C001D2
:101FB0008823C9F4E0914C01F0914D01CE010196C6
:101FC000BE016D5F7F4FAE014B5F5F4F099501C052
:101FD000C9DE6B817C81812F4D8137DE8823C1F37F
:101FE00089819A816ADF0F900F900F900F900F9068
:101FF000CF91DF911F91089523E0CACFEF92FF9216
:102000000F931F93CF93DF937C018B018091C001CD
:10201000882369F4C0E0D0E007C0C70165E070E044
:1020200043E035DE9FDE2196C017D107B0F3DF9184
:10203000CF911F910F91FF90EF9008950F931F93F1
:10204000DF93CF9300D000D00F92CDB7DEB78C01D5
:102050007A8369835C834B832D838091C0018823BD
:10206000C9F4E0914C01F0914D01CE010196BE0101
:102070006D5F7F4FAE014B5F5F4F099501C072DE10
:102080006B817C81C8014D8102DE8823C1F3898187
:102090009A8113DF0F900F900F900F900F90CF91B8
:1020A000DF911F910F91089545E050E023E0C6CFE6
:1020B00023E0C4CF6091080170910901882311F4D5
:1020C00060517F4F82E090E099CF84E090E068E734
:1020D00070E0EADF80915601882329F084E090E0E7
:1020E00068E770E0E1DF84E090E06AE070E0DCCF78
:1020F000BF92CF92DF92EF92FF920F931F93CF93F5
:10210000DF93B82EEB016115710509F483C080E0FF
:1021100040E050E060E070E031D960910C017091D6
:102120000D0188E090E044E150E0C2DF84E090E0FF
:102130006EE571E04AE050E0BBDF81E069E170E00C
:1021400045E050E059DF84E090E060EE71E056DF5A
:1021500081E060E040E820E130E006E010E00FDFE1
:1021600081E060E840E02AE530E00DE210E007DFC2
:10217000ACDF8B2D9FDFC230D10508F44BC081E06E
:10218000C82ED12CE12CF12C80E0B701A601F6D8A5
:1021900081E06FEF4FEF22E330E0E7DE81E06FEFA9
:1021A00040EA20E030E00EEF11E0E9DE84E090E06C
:1021B0006AEA70E079DF84E090E06AEA70E074DF58
:1021C00084E090E06AEA70E06FDF81E060E040E880
:1021D00022E330E006E811E0D2DE82E090E066E83B
:1021E00071E00CDF81E060EC40E028E730E0BDDE2C
:1021F00081E06FEF40E028E730E0B7DE66DF8B2D4F
:1022000059DF0894C11CD11CE11CF11CCC16DD0661
:1022100008F4BACFDF91CF911F910F91FF90EF900B
:10222000DF90CF90BF900895CF93DF93EB01409163
:102230001401509115018823F9F080E090E16AE0E3
:1022400070E0BCDD84E06AE070E04AE050E0A4DDCC
:1022500080E06AE070E04AE050E09EDD40911401C9
:102260005091150184E090E06AE070E0A7DD82E023
:1022700090E0BE018DDD05C080E090E16AE070E095
:102280009DDDDF91CF9108950E94B90780E6FADDC8
:102290008091020190910301DADDA2DD80910601B7
:1022A00060E971E0C1DF60910001709101018091EE
:1022B00007011EDF409112015091130180E090E16F
:1022C0006AE070E07BDD0E94B707A1DD80E090E06E
:1022D0000895A1E21A2EAA1BBB1BFD010DC0AA1F67
:1022E000BB1FEE1FFF1FA217B307E407F50720F07F
:1022F000A21BB30BE40BF50B661F771F881F991FFA
:102300001A9469F760957095809590959B01AC0142
:10231000BD01CF010895FB01DC0102C005900D92C3
:0C23200041505040D8F70895F894FFCFCA
:10232C00D0077102780001012003E8037800FA005D
:10233C0064007D007701C800FA007701FA00C40937
:10234C0077015F057D007102500077016E00770107
:10235C00F4017701E457140050005A002C012C01B1
:10236C00FA00FA0001000000381EE797910C0000FB
:06237C0008808080800053
:00000001FF
