:10000000DBC20000F6C20000F4C20000F2C2000031
:10001000F0C20000EEC20000ECC20000EAC2000024
:10002000E8C20000E6C2000056C50000E2C20000BF
:10003000E0C20000DEC20000DCC20000DAC2000044
:10004000D8C20000D6C20000D4C20000D2C2000054
:10005000D0C20000CEC20000CCC20000CAC2000064
:10006000C8C200000C94C0080C949508C2C20000DD
:10007000C0C20000BEC20000BCC20000BAC2000084
:10008000B8C20000B6C20000B4C20000B2C2000094
:10009000B0C20000AEC20000ACC20000AAC20000A4
:1000A000A8C20000A6C20000A4C200000000000018
:1000B00003836BF2F7703BE1F4F350131F979AC779
:1000C0001C14F135E8E7A126EB64CAD4CF58D98ACD
:1000D000CCDBB2783828E26B3BAB8999D0CF434D6B
:1000E000D34C28BF27BF78AC243C135E6FC75E108B
:1000F0006C4435E298B765F19B340E037050C4D759
:1001000073D3AF258720FF3684A394C4A09F879A1A
:10011000A31CEC6857EFBC7B546CD789BF081D5DEE
:10012000BC8B76AF487826BC4BFB4D4EDE8EBD2097
:10013000DD0DD6D229FE86C12A7DED33C11927E710
:10014000C29A4C1536691C0635EA77F411D664AAB2
:1001500012550F58E6A65F4BE52534B90E41FE6DEA
:100160000DC2959FF931C58CFAB2AE7EB149E3302C
:10017000B2CA88C24639D8D145BAB323AEDE79F7C0
:10018000AD5D120559AE42165A2D29E47E113ABAD8
:100190007D9251488961015B8AE26AA96186A07DEE
:1001A0006205CB8F96F69B9C9575F06EBC1D7B41CE
:1001B000BF9E10B34B6D40A048EE2B52A38AE18640
:1001C000A0098A7454FADA675779B1957345A2CBBE
:1001D00070C6C9398435992A87B6F2D86CD2380CE2
:1001E0006F5153FE9BA203ED9821681FD3DA25516E
:1001F000D0594EA324AA1EB027297542CC4DBF96D4
:10020000CFCED4643B3D847738BEEF851C82FCDBC7
:100210001F019729EBF2C73AE871ACC80315661CB9
:1002200000960DEEF4655DFDF7E6360F6293C6614C
:100230006110AD9395E3FD80966096727D045CA697
:100240007E8737548A74674789F70CB5ADCB1FEBAF
:10025000AE4874195ABB240A59384FF8B25C852C41
:10026000B1DFEEDE452CBECD46AFD53F0D549871C3
:100270000ED7F383FA24A390F9A7C86212C302B67B
:1002800011406944E5B33957E63052A5C20C41FB31
:10029000C18F2A09357C7A1A36FF11E8DD9BDB3CD9
:1002A000DE18B0CE2AEBE0DD29688B2F783BF68292
:1002B0007BB89D708F4BCD638CC8A69167AC6C45A5
:1002C000642F07B790DC57A4935F3C56B7632F08A1
:1002D000B4E044FA401314E943907F1BA8F4B5CF6F
:1002E000AB77DE3D5F848E2E5C07E5DC17FCA892C1
:1002F000147FC360E08C9373E30FF881086B325571
:100300000BE859A7FF1B09B4FC986246D8A47118E2
:10031000DB271AEA2FD44AF92C57210BC733EBDF1E
:10032000C4B0802D3043D03E33C0BBCCA6B54BA269
:10033000A536205051C5704352461BB1B922D16534
:10034000BAA1BA974E52EA844DD1817669ED9228CE
:100350006A6EF9DA9E9DA9C99D1EC23B767A08EFA6
:1003600075F9631D810A330E828958FCC97215B272
:10037000CAF17E403E022E533D8145A1D6E58F75E0
:10038000D566E4872195B4942216DF66062ACC3818
:1003900005A9A7CAF15AF7D9F2D99C2B19BD56FF66
:1003A0001A3E3D0DEECD6D1EED4E06ECC4268DC3FE
:1003B000C7A5E6313356B62230D5DDD0DBB1170400
:1003C000D8327CF62CC12CE52F4247170B7E5449BE
:1003D00008FD3FBBFC0E6FA8FF8D045A14E9CE8EBA
:1003E000176AA57CE399F56FE01A9E9DABE1D3D324
:1003F000A862B8215C91E8325F1283C0B4764914D8
:10040000B7F522E6430672F54085190764B90A5923
:10041000673A61AB93C931B8904A5A4A7B2E909E95
:1004200078ADFB6C8C5EAB7F8FDDC08D1AA830E39E
:10043000192B5B11EDD80B02EE5B60F0053FAA248F
:1004400006BCC1D6F24F91C5F1CCFA37D5F0E969B7
:10045000D673829B2280D2882103B97ACA6773AE91
:10046000C9E4185C3D17484F3E9423BD756F6EF389
:1004700076EC0501821F5512819C3EE06AF8F43447
:10048000697B9FC69D88CFD59E0BA427BA37B779C5
:10049000B9B4DC8B4D478C984EC4E76AA5A02DBE3D
:1004A000A623464C52D0165F51537DAD0501090578
:1004B000A1011500250135004501750195100509BB
:1004C00019012910810205012507463B0175049594
:1004D0000165140939814265009501810126FF00FB
:1004E00046FF000930093109320935750895048144
:1004F000020600FF0920950181020A212695089134
:1005000002C012010002000000400D0F9200000125
:10051000010200010902290001010080FA0904001A
:10052000000203000000092111010001225600070A
:100530000502034000080705810340000804030981
:10054000041C0348004F0052004900200043004FA4
:10055000002E002C004C00540044002E000000240B
:100560000350004F004B004B0045004E002000435D
:10057000004F004E00540052004F004C004C00450C
:100580000052000000D5738162EED5E1EB87FB32AB
:1005900090FD4C66EF8B83F4D8CD3598F89A070818
:1005A000C5E3DEEF34208E99125EC41094D3948A92
:1005B0000D8A77CD128360E611241FBECFEFDAE0FB
:1005C000DEBFCDBF11E0A0E0B1E0EAEAF7E202C091
:1005D00005900D92AA35B107D9F712E0AAE5B1E06E
:1005E00001C01D92A133B107E1F70E94CB120C9418
:1005F000D31306CD882319F028985D980895289A7A
:100600005D9A0895209A559A80E0F4CF9C0140911C
:100610000B0250910C024617570718F4F90190E0AD
:1006200043C06115710511F0AB01F8CF8091E8006E
:100630008E778093E80040E050E0F0CF8091040294
:10064000882309F447C0853009F446C08091E8004A
:1006500083FD44C08091E80082FD36C08091E800AF
:1006600080FF22C08091F3009091F200782F60E02B
:10067000292F30E0262B372B07C081918093F10082
:10068000415050402F5F3F4F4115510519F0203424
:10069000310598F390E02034310509F491E0809120
:1006A000E8008E778093E8004115510539F69923CB
:1006B00029F60AC080910402882361F0853061F038
:1006C0008091E80083FD0AC08091E80082FFF2CFAC
:1006D00080E0089582E0089583E0089581E0089520
:1006E0009C0140910B0250910C024617570718F4D9
:1006F000F90190E044C06115710511F0AB01F8CF2C
:100700008091E8008E778093E80040E050E0F0CFE1
:1007100080910402882309F448C0853009F447C059
:100720008091E80083FD45C08091E80082FD37C0DC
:100730008091E80080FF23C08091F3009091F20047
:10074000782F60E0292F30E0262B372B08C08491CA
:100750008093F1003196415050402F5F3F4F41153B
:10076000510519F02034310590F390E02034310523
:1007700009F491E08091E8008E778093E8004115BC
:10078000510531F6992321F60AC08091040288238D
:1007900061F0853061F08091E80083FD0AC08091AE
:1007A000E80082FFF2CF80E0089582E0089583E0C0
:1007B000089581E00895BF92CF92DF92EF92FF9269
:1007C0000F931F93CF93DF93182F092F7B016A019B
:1007D000EFD0B82E8823B1F5812F902F9C01E9012D
:1007E000C114D10439F0F60180819181E81AF90A27
:1007F000C80FD91F00E010E022C08091E80085FDFD
:1008000016C08091E8008B778093E8009BD3C114D9
:10081000D10449F0F60180819181800F911F91836D
:10082000808385E010C0C4D0882349F00CC080913B
:10083000F10089930894E108F1080F5F1F4FE1145C
:10084000F104D9F68B2DDF91CF911F910F91FF907D
:10085000EF90DF90CF90BF900895BF92CF92DF923C
:10086000EF92FF920F931F93CF93DF93182F092FCF
:100870007B016A019DD0B82E8823B1F5812F902F7E
:100880009C01E901C114D10439F0F6018081918104
:10089000E81AF90AC80FD91F00E010E022C08091C1
:1008A000E80085FD16C08091E8008E778093E8000F
:1008B00049D3C114D10449F0F60180819181800FA0
:1008C000911F9183808385E010C072D0882349F006
:1008D0000CC089918093F1000894E108F1080F5F42
:1008E0001F4FE114F104D9F68B2DDF91CF911F91A9
:1008F0000F91FF90EF90DF90CF90BF900895382F29
:10090000282F2EC0822F8F708093E900231721F4A7
:10091000762F942F50E006C07091EC009091ED007E
:100920005091F00091FF1BC08091EB008E7F80936F
:10093000EB008091ED008D7F8093ED008091EB00C6
:1009400081608093EB007093EC009093ED005093E6
:10095000F0008091EE0087FD02C080E008952F5FD7
:10096000273080F23F703093E90081E00895809154
:10097000050288239CF404C0809104028823B9F006
:100980008091E80082FFF8CF8091E8008B77809318
:10099000E800089580910402882349F08091E800DE
:1009A00080FFF8CF8091E8008E778093E80008956B
:1009B0004091E4005091E50024E68091EC0080FF36
:1009C00024C08091E80080FD1EC08091040288232D
:1009D00011F482E00895853011F483E00895809148
:1009E000EB0085FF02C081E008958091E4009091C2
:1009F000E5008417950709F3222311F484E0089594
:100A00002150AC01DACF80E008958091E80082FFA8
:100A1000DCCFF9CFEF92FF920F931F934FD056D0B8
:100A200008ED10E0F80180818F77808380818068F5
:100A3000808380818F7D808319BC10920402109284
:100A40000002109202021092010280EEE82EF12CB8
:100A5000F70180818B7F8083F801808181608083B2
:100A600080E060E042E34BDFE1EEF0E080818E7FEA
:100A70008083E2EEF0E08081816080838081886005
:100A80008083F70180818E7F8083F801808180617F
:100A900080831F910F91FF90EF900895E8EDF0E0B3
:100AA00080818F7E8083E7EDF0E0808181608083AC
:100AB00084E082BF81E080930302ACCFE8EDF0E0F8
:100AC00080818E7F80831092E20008951092DA0078
:100AD0001092E10008951F920F920FB60F92112409
:100AE0002F933F934F935F936F937F938F939F9336
:100AF000AF93BF93EF93FF938091E10082FF0AC011
:100B00008091E20082FF06C08091E1008B7F80939C
:100B1000E10017D28091DA0080FF1DC08091D800DB
:100B200080FF19C08091DA008E7F8093DA00809177
:100B3000D90080FF0CC080E189BD82E189BD09B484
:100B400000FEFDCF81E0809304028AD304C019BC6B
:100B50001092040286D38091E10080FF18C080913A
:100B6000E20080FF14C08091E2008E7F8093E2005B
:100B70008091E20080618093E2008091D8008062E1
:100B80008093D80019BC85E080930402DAD180916B
:100B9000E10084FF2FC08091E20084FF2BC080E140
:100BA00089BD82E189BD09B400FEFDCF8091D800E6
:100BB0008F7D8093D8008091E1008F7E8093E1004B
:100BC0008091E2008F7E8093E2008091E20081605C
:100BD0008093E20080910002882311F084E007C036
:100BE0008091E30087FD02C081E001C083E0809333
:100BF0000402A7D18091E10083FF22C08091E2002E
:100C000083FF1EC08091E100877F8093E10082E036
:100C100080930402109200028091E1008E7F809305
:100C2000E1008091E2008E7F8093E2008091E200FB
:100C300080618093E20080E060E042E360DE81D189
:100C4000FF91EF91BF91AF919F918F917F916F91A4
:100C50005F914F913F912F910F900FBE0F901F907A
:100C600018951F93DF93CF93CDB7DEB7AC970FB630
:100C7000F894DEBF0FBECDBFE5E0F2E08091F10059
:100C8000819322E0ED30F207C9F7ECD28091E800C1
:100C900083FF3FC18091050230910602353009F48F
:100CA0008DC0363040F43130E1F1313070F0333006
:100CB00009F02FC136C0383009F4FDC0393009F4CD
:100CC0000CC1363009F025C19CC0803821F0823833
:100CD00009F01FC108C0909101028091020288238F
:100CE000B1F0926014C0809109028F70873008F0D3
:100CF00010C18093E9008091EB0090E025E096958B
:100D000087952A95E1F7982F91701092E9008091CC
:100D1000E800877F8093E8009093F1001092F10043
:100D2000D5C0882319F0823009F0F3C090E08F71AC
:100D30009070009721F0029709F0EBC00CC08091F1
:100D40000702813009F0E5C010920202333081F5CC
:100D5000809302022DC080910702882349F52091DB
:100D600009022F70822F8150863008F0D2C0209364
:100D7000E9008091EB0080FF1BC0333021F48091AB
:100D8000EB00806213C08091EB0080618093EB00E8
:100D900081E090E002C0880F991F2A95E2F78093C6
:100DA000EA001092EA008091EB0088608093EB00EB
:100DB0001092E9008091E800877F8BC0882309F0BA
:100DC000A8C0109107021F778091E3008078812BE3
:100DD0008093E3008091E800877F8093E800C7DD7F
:100DE0008091E80080FFFCCF8091E30080688093D1
:100DF000E300112311F482E001C083E08093040238
:100E000088C08058823008F084C080910702909199
:100E1000080223E08C3D920709F033C083E08C8305
:100E20008AE28B837FB7F894DE0115966EE040E08E
:100E300050E011E2E62FF0E010935700849140FF5C
:100E400003C082958F706F5F8F70282F30E08A30DB
:100E500018F0C901C79602C0C901C0968D939D9331
:100E60004F5F5F4F4431510529F77FBF8091E80004
:100E7000877F8093E800CE0103966AE270E0C6DBCC
:100E800014C06091090270910A02AE014F5F5F4F7A
:100E90009ED1BC01009709F43CC08091E800877F97
:100EA0008093E80089819A811BDC8091E8008B7730
:100EB0008093E8002EC0803861F58091E800877F3C
:100EC0008093E800809100028093F1008091E80017
:100ED0008E778093E8004BDD1CC08823D1F490917D
:100EE00007029230B0F48091E800877F8093E80099
:100EF000909300023CDD80910002882331F48091C0
:100F0000E30087FD02C081E001C084E08093040219
:100F100018D28091E80083FF0AC08091E800877FA3
:100F20008093E8008091EB0080628093EB00AC96A8
:100F30000FB6F894DEBF0FBECDBFCF91DF911F91EA
:100F4000089508951F9380910402882371F01091F1
:100F5000E9008091EC001092E9008091E80083FFA5
:100F600001C07FDE1F701093E9001F9108954ACBE6
:100F700008956F927F928F929F92AF92BF92CF927D
:100F8000DF92EF92FF920F931F93DF93CF9300D0E6
:100F900000D0CDB7DEB77B018C014A015901CC24CA
:100FA000DD243E010894611C711C20C0F401EC0D8D
:100FB000FD1D60816E2570E0660F771F660F771F3D
:100FC00064557F4FC30144E050E00E94CA13EF2CE8
:100FD000F02E012F112789819A81AB81BC81E826EF
:100FE000F9260A271B270894C11CD11CCA14DB044C
:100FF000E8F2B701C8010F900F900F900F90CF91BA
:10100000DF911F910F91FF90EF90DF90CF90BF90F5
:10101000AF909F908F907F906F900895EF92FF9286
:101020000F931F937C018B01045010406FEF7FEFF3
:101030008FEF9FEFA70198019CDF0E0D1F1DF80198
:1010400060837183828393831F910F91FF90EF9050
:1010500008959B01AC01F89460E079E08DE390E0A5
:101060000E94A8132150304040405040569547956B
:10107000379527953093CD002093CC0082E0809364
:10108000C80088E98093C90086E08093CA00109266
:101090006F0180916F0180936E011092B901809170
:1010A000B9018093B8017894089590916E019F5F83
:1010B000923108F090E080916F0120E0891321E0E7
:1010C000822F0895282F90916E019F5F923108F032
:1010D00090E080916F018917E1F3E92FF0E0E45A85
:1010E000FE4F208390936E0188EB8093C900089592
:1010F0009091B8018091B90120E0981321E0822FEE
:1011000008959091B8018091B9019817D1F3909109
:10111000B9019F5F983408F090E0E92FF0E0E059C2
:10112000FE4F80819093B90108951F920F920FB6E0
:101130000F9211248F939F93EF93FF9390916E01E1
:1011400080916F01981721F488E98093C9000FC03E
:1011500090916F019F5F923108F090E0E92FF0E0ED
:10116000E45AFE4F80818093CE0090936F01FF91EF
:10117000EF919F918F910F900FBE0F901F90189538
:101180001F920F920FB60F9211242F938F939F935C
:10119000EF93FF932091CE009091B8019F5F983418
:1011A00008F090E08091B901981739F0E92FF0E04C
:1011B000E059FE4F20839093B801FF91EF919F91EA
:1011C0008F912F910F900FBE0F901F901895DA01FD
:1011D0009330B1F0943028F4913041F0923079F5A9
:1011E0000AC0913211F1923251F524C0E2E0F5E0EB
:1011F00022E130E028C0E4E1F5E029E230E023C05C
:10120000813049F0813018F08230C9F40AC0EDE332
:10121000F5E0849103C0E1E4F5E08491282F30E00B
:1012200012C0EFE5F5E08491F9CFE6E2F5E029E0C0
:1012300030E009C0ECEAF4E026E530E004C0E0E08C
:10124000F0E020E030E0ED93FC93C9010895609157
:10125000BA017091BB018091BC019091BD010895CC
:101260000895089508956ECE08950F931F93DF9308
:10127000CF93CDB7DEB72F970FB6F894DEBF0FBE72
:10128000CDBF288739874A875B876C877D878E87A4
:101290009F8780910402843009F047C082E08093E8
:1012A000E9008091E80082FF14C08091E80085FF8A
:1012B0000BC08E010F5F1F4FC80167E070E040E078
:1012C00050E079DA8823C1F78091E8008B7780932A
:1012D000E80081E08093E9008091E80080FF25C06C
:1012E0008E01085F1F4FC80168E070E040E050E0E9
:1012F000B4DA8823C1F78091E8008E778093E80004
:101300008091BA019091BB01A091BC01B091BD0147
:101310000196A11DB11D8093BA019093BB01A093CA
:10132000BC01B093BD0181E001C080E02F960FB6F3
:10133000F894DEBF0FBECDBFCF91DF911F910F910B
:10134000089582E060EC42E3DADA81E061EC42E3A6
:10135000D6CA089580E0089580E0089508956A5FF0
:101360006093C001962F909590930D0280930E028A
:101370008DE092E070E052CE982F8091C0018823DA
:1013800011F080E0089590930F0240931002509363
:101390001102609312027093130280E265E0DFDFB6
:1013A00081E00895EF92FF920F931F937B018C01D0
:1013B0008091C001882311F080E014C0E0920F02F8
:1013C000F092100200931102109312022093130264
:1013D00030931402409315025093160284E168E0A2
:1013E000BEDF81E01F910F91FF90EF9008959B0168
:1013F000AC018091C001882311F080E00895209312
:101400000F0230931002409311025093120281E1B7
:1014100064E0A5DF81E008959B01AC018091C001EB
:10142000882311F080E0089520930F02309310027A
:10143000409311025093120280E164E090DF81E05A
:1014400008959C018091C001882311F080E00895E7
:101450003093100220930F0287E062E080DF81E08A
:10146000089560930F02709310028093110290937D
:10147000120286E064E073DF81E0089560930F025A
:1014800070931002809311029093120285E064E041
:1014900066DF81E0089580930F0283E061E05FDF03
:1014A00081E0089580930F0282E061E058DF81E0DF
:1014B000089580930F0281E061E051DF81E008959B
:1014C0008091C001882311F080E0089580E060E001
:1014D00046DF81E00895EF92FF920F931F93FB0187
:1014E000833409F470C0843440F4813431F182349F
:1014F00008F040C0803439F408C0843409F484C052
:10150000863409F48EC080E094C0443009F08BC06A
:1015100080819181A281B3810196A11DB11D80932B
:10152000470190934801A0934901B0934A0160811B
:101530007181828193815BDF7BC0443009F073C08D
:101540008EE08093C00181EF80930D0284E180934F
:101550000E0280819181A281B38180930F029093CA
:101560001002A0931102B09312028AE091E8A6E75C
:10157000B8E71CC0443009F056C08EE08093C0012B
:1015800081EF80930D0284E180930E02808191812E
:10159000A281B38180930F0290931002A093110255
:1015A000B093120280E298ECA6E7B8E780931302AA
:1015B00090931402A0931502B09316028DE092E06E
:1015C0006EE070E01FC0443071F58BE08093C00185
:1015D00084EF80930D0282E180930E0280819181DD
:1015E000A281B38180930F0290931002A093110205
:1015F000B09312028091BE01809313028DE092E0BD
:101600006BE070E00BDD14C0443069F4E080F180E1
:10161000028113811CDE9B01AC01C801B701C2DE4F
:1016200007C0443019F0842F44DF02C0CB0196DE9E
:1016300081E01F910F91FF90EF900895833018F48F
:10164000813038F414C0843021F0813161F080E0C1
:10165000089582E18093C001EDE0F2E0DF011D9288
:101660008A95E9F704C0443021F0842F22DF81E01D
:101670000895CB016EDE81E008950F931F9338DD4E
:10168000882319F41092C20168C01091C10139DD9C
:10169000E12FF0E0E15EFD4F80831F5F1093C101F9
:1016A00080911F02082F0095113059F5882359F4B5
:1016B0001092C1018091C201813009F001DF81E007
:1016C0008093C2014AC0063010F00331D0F010926E
:1016D000C1018091C201823011F0802FEADE82E0E8
:1016E0008093C20139C004DD8823B1F11091C1019A
:1016F00008DDE12FF0E0E15EFD4F80831F5F109376
:10170000C1012091C101201770F330E02450304016
:101710006FEF7FEF8FEF9FEF4FE152E02ADCE09118
:10172000C101F0E0E55EFD4F2081318142815381AE
:10173000621773078407950759F01092C1018091D1
:10174000C201823049F0802FADDE0093C00104C099
:101750001092C20182E001C081E01F910F910895B3
:101760008091C001882389F408959FDC882311F4B7
:1017700081E008959091BF01E92FF0E0E35FFD4F14
:1017800080819F5F9093BF019DDC9091BF0180910C
:10179000C001981750F31092BF011092C00180E071
:1017A0000895CF92DF92EF92FF920F931F93D8DFAD
:1017B000882309F0A3C061DF882311F4CBDD9FC02B
:1017C000813009F49BC0C090C1018AEFC80E10920D
:1017D000C101D09020028FE38D1548F08D2D61E27C
:1017E00072E04C2D2BDF882309F088C065C0E090A3
:1017F0002102F090220200912302109124022091F4
:101800004701309148014091490150914A01D80166
:10181000C701821B930BA40BB50B181619061A06E9
:101820001B063CF480E4D81621F0CA01B90126DE7B
:1018300065C08D2D807C803481F58D2D61E272E054
:101840004C2D49DE882369F4E091C501F091C60171
:10185000309791F18D2D61E272E04C2D099588232E
:1018600059F18091470190914801A0914901B091AF
:101870004A01E816F9060A071B0709F03FC0089459
:10188000E11CF11C011D111DE0924701F09248017D
:101890000093490110934A0131C0E216F306040790
:1018A000150721F0C801B701B7DD28C08091C70135
:1018B0009091C801892B19F48D2DEDDD1FC08FE1AA
:1018C00092E04ADD8823B9F0C801B701A5DD809117
:1018D000470190914801A0914901B0914A010196B8
:1018E000A11DB11D8093470190934801A093490128
:1018F000B0934A0103C0C801B701B3DD81E01F9175
:101900000F91FF90EF90DF90CF900895EF92FF92AC
:101910000F931F9320914B0130914C0140914D0149
:1019200050914E01DA01C9016DE0880F991FAA1F7D
:10193000BB1F6A95D1F782279327A427B5277C017F
:101940008D0121E116950795F794E7942A95D1F733
:10195000E826F9260A271B27A801970185E0220F10
:10196000331F441F551F8A95D1F72E253F25402749
:10197000512720934B0130934C0140934D015093DC
:101980004E01B901CA011F910F91FF90EF90089588
:10199000FC01DB01118210821D921C92FA0110825F
:1019A0000895089590E0FC01EB57FA4FE49123E38A
:1019B000629FB0011124680F791FE62787EC90E041
:1019C000E89F802D112408951F93CF93DF93CDECD2
:1019D000D1E010E0812F6091CC01E4DF89931F5F9B
:1019E0001333C1F7DF91CF911F910895DF92EF92EA
:1019F000FF920F931F9393E0899FC0011124F82E4B
:101A0000E090CC016E2DCEDFD82E0F2D10E08F2D63
:101A10008F5F6E2DC7DF03531E4FF8019181582F42
:101A2000592740E020812D2530E0242B352BC9019A
:101A30001F910F91FF90EF90DF9008950F931F93E8
:101A400093E0899F800111240E5F802F6091CC016B
:101A5000A9DFEDECF1E0E00FF11D9081892790E026
:101A60001F910F9108951F93182FC0DF892B19F034
:101A700080E090E009C0812FE1DF20E0892B09F0B0
:101A800021E081E02827822F1F910895DF92EF92B5
:101A9000FF920F931F93F62EE72E93E0899FC001CC
:101AA0001124D82E082F10E06091CC017BDF035366
:101AB0001E4FF826F801F0828D2D8F5F6091CC01CA
:101AC00071DFE826F801E1821F910F91FF90EF90FE
:101AD000DF900895FF920F931F93F62E93E0899F56
:101AE000800111240E5F802F6091CC015BDFEDEC53
:101AF000F1E0E00FF11DF826F0821F910F91FF90A9
:101B00000895EF92FF920F931F93CF93DF938091ED
:101B1000CB01882309F43BC000915101109152017F
:101B2000C0E0D0E071E0E72EF12C8C2F5FDF892B35
:101B300059F4C7010C2E02C0880F991F0A94E2F7CE
:101B400080959095082319232196CE30D10569F709
:101B500010935201009351018EE048DF892B19F454
:101B600088E0809353018FE041DF892B29F480E8DE
:101B7000809354018093550180E138DF892B29F44B
:101B800080E880935601809357011092CB01DF913A
:101B9000CF911F910F91FF90EF900895FF920F93B7
:101BA0001F93CF93DF93ADDF20915101309152010C
:101BB000409153015091540160915501709156012B
:101BC000809157019091580150DBF82E4CDBFF209B
:101BD00011F411E037C010E0812F08DFEC01812FF4
:101BE0002DDF682F8091C401882321F000E0C0E040
:101BF000D0E007C0062F209711F0219702C0611195
:101C000001508091CC018F5F8093CC01812FBE0168
:101C10003DDF812F602F5EDF8091CC01815080936A
:101C2000CC018F5F1F5F1131B9F68093CC0181E049
:101C30008093CB01E091C901F091CA01309709F07E
:101C4000099512E3AEDD882311F01150D9F78F2DDD
:101C5000DF91CF911F910F91FF900895DF92EF9246
:101C6000FF920F931F93CF93DF93F82EE62ED42E7F
:101C7000E9018091C401882319F090DF81E01DC043
:101C8000FF2011F410E101C01FE0812FECDE88235A
:101C9000A1F0812FBE01FADE812F602F1BDFFF2014
:101CA00029F0E0925401D092550104C0E09256010F
:101CB000D092570181E08093CB01DF91CF911F91AA
:101CC0000F91FF90EF90DF9008950F931F93CF93A4
:101CD000DF93082FEB01142F8091C401882319F0A2
:101CE0005DDF81E00FC08EE0BEDE882359F08EE01C
:101CF000BE01CCDE8EE0612FEDDE0093530181E06A
:101D00008093CB01DF91CF911F910F9108956F9236
:101D10007F928F929F92AF92BF92CF92DF92EF927B
:101D2000FF920F931F93CF93DF936C015B01742E8F
:101D30008091C401882311F031DF44C0C0E0D0E0BD
:101D400001E010E0C8010C2E02C0880F991F0A9410
:101D5000E2F78C219D21892B21F08C2F84DE8823B2
:101D600091F12196CE30D10569F700915101109182
:101D70005201C0E0D0E0E1E08E2E912C6624639405
:101D800074010C2E02C0EE0CFF1C0A94E2F7C7018E
:101D90008C219D21892B71F08C2F65DE882351F0D9
:101DA0008C2FB50173DE8C2F672D94DE0E291F2931
:101DB0006092CB012196CE30D10511F710935201DC
:101DC0000093510181E0DF91CF911F910F91FF901E
:101DD000EF90DF90CF90BF90AF909F908F907F90CB
:101DE0006F9008951F9311E005C010E08091C40129
:101DF000882361F4D3DE8823C1F3112339F0809165
:101E0000C401882319F481E090E01BDB1F91089541
:101E1000DAC1089589C00895CF93DF939B01EA0149
:101E20006530710510F425E030E0B901A90120E02A
:101E30003AD1CE01EFDFDF91CF910895CF93DF93B9
:101E40009B01EA016530710510F425E030E0B9012D
:101E5000A90120E0D8D1CE01DDDFDF91CF91089537
:101E600080E390E06AE070E048E250E0E7DF84E081
:101E700090E06AE070E04CE850E0E0DF409107015C
:101E80005091080180E090E16AE070E0D7CFDFC9AF
:101E900008950F931F9300914F011091500128EC6A
:101EA0003CE03093500120934F010E94FA021093BE
:101EB000500100934F011F910F9108950F931F93AD
:101EC000CF93DF938C01C0E0D0E00BC081E0E1DF75
:101ED00089E190E09FDF80E0DCDF89E190E09ADF3C
:101EE000E296C017D10790F3DF91CF911F910F9128
:101EF00008958093BE0184B7877F84BF88E10FB6C1
:101F0000F89480936000109260000FBEE1E6F0E06C
:101F100080E88083108260E072EC81E090E099D8E4
:101F20000E944E05789450CD0F931F93CF93DF936B
:101F30008C018091C401882341F4C0E0D0E002C04C
:101F400051DF2196C017D107D8F3DF91CF911F91B0
:101F50000F910895DF92EF92FF920F931F93CF930B
:101F6000DF937C01EB01D42ED1DC162F13701330DC
:101F7000D9F300E0113029F0113030F0123051F473
:101F800006C0E3E3F0E108C0EAE3F0E105C0ECE2FB
:101F9000F0E102C0E0E0F0E0C701BE014D2D09957F
:101FA000882311F081E008C01F5F133009F410E0AE
:101FB0000F5F0330F9F680E0DF91CF911F910F9111
:101FC000FF90EF90DF900895DF92EF92FF920F93D2
:101FD0001F93CF93DF938C017B01EA01D22E809176
:101FE000C401882311F009C0FDDEC801BE014D2DDA
:101FF000B1DF8823C9F3C70197DFDF91CF911F912C
:102000000F91FF90EF90DF90089545E050E023E0BE
:10201000DBCF0F93FA01022F6230710591F063302C
:10202000710518F4672B41F00AC06430710559F04E
:102030006630710521F40AC060E840E009C060E83C
:1020400006C06FEF04C060E84FEF02C060E040E8F8
:102050009F0104DE0F910895FC01DB01242F80E035
:10206000BF01AD01D6CFFC01DB01242F81E0BF0110
:10207000AD01CFCF8230910581F08330910518F406
:10208000892B39F008C08430910549F0069719F47E
:1020900008C080E007C088E005C082E003C084E09B
:1020A00001C086E012CE1F93DF93CF9300D000D003
:1020B0000F92CDB7DEB7182F7A8369835C834B8389
:1020C0002D838091C4018823C9F4E0914F01F091E0
:1020D0005001CE010196BE016D5F7F4FAE014B5F97
:1020E0005F4F099501C07EDE6B817C81812F4D8120
:1020F000ECDD8823C1F389819A8116DF0F900F9060
:102100000F900F900F90CF91DF911F91089523E0D2
:10211000CACFAF92BF92CF92DF92EF92FF920F930E
:102120001F93CF93DF935C016B017A018091C4010F
:10213000882309F03DC0C0E0D0E002C053DE219604
:10214000C50165E070E043E0E2DD8823B9F384E097
:1021500090E0EADE02C046DE2196C60165E070E04E
:1021600043E0D5DD8823B9F3CE15DF0508F5C501B9
:1021700065E070E043E0CBDD8E010C5F1F4FCE15B4
:10218000DF05B0F42FDE2196C017D107C1F7C601D5
:1021900065E070E043E0BBDD8E010C5F1F4FCE15A4
:1021A000DF0530F41FDE2196C017D107C1F7DFCF5E
:1021B000DF91CF911F910F91FF90EF90DF90CF9023
:1021C000BF90AF900895EF92FF920F931F93CF931C
:1021D000DF937C018B018091C401882369F4C0E006
:1021E000D0E007C0C70165E070E043E090DDFADDB4
:1021F0002196C017D107B0F3DF91CF911F910F91B6
:10220000FF90EF9008950F931F93DF93CF9300D02B
:1022100000D00F92CDB7DEB78C017A8369835C83DF
:102220004B832D838091C4018823C9F4E0914F0131
:10223000F0915001CE010196BE016D5F7F4FAE015E
:102240004B5F5F4F099501C0CDDD6B817C81C8017B
:102250004D815DDD8823C1F389819A8165DE0F9010
:102260000F900F900F900F90CF91DF911F910F91D2
:10227000089545E050E023E0C6CF23E0C4CFEF92BD
:10228000FF920F931F93E82EF62E82E090E064E019
:1022900070E0BBDE82E090E064E070E0B6DE84E0F7
:1022A00090E063E070E0B1DE84E090E064E070E034
:1022B000ACDE82E090E060E070E0A7DE84E090E0D9
:1022C00063E070E0D6DF84E090E063E070E0D1DFAF
:1022D000FF2011F402E301C001E310E084E090E08C
:1022E00063E070E092DE1F5F1017C0F3FF2019F467
:1022F0006DE270E002C068E270E082E090E085DEAE
:1023000084E090E063E070E080DE84E090E063E0F1
:1023100070E07BDE84E090E063E070E076DE84E0F5
:1023200090E063E070E071DEEE2031F484E090E054
:102330006DE270E09EDF18C084E090E063E070E042
:1023400098DFFF2011F40CE001C00AE010E084E007
:1023500090E063E070E059DE1F5F1017C0F384E087
:1023600090E060E070E051DE1F910F91FF90EF90E0
:10237000089588E090E064E670E025DF88E090E072
:1023800064E070E042E350E0C4DE88E090E060E9A1
:1023900071E019CFFF920F931F93CF93DF93182F04
:1023A000F62E6091190170911A0181E090E04AE0E7
:1023B00050E063DF80E090E065E070E026DE80E0E2
:1023C00090E065E070E021DE82E090E065E070E0A2
:1023D0001CDE80E092E06AE070E04DE750E02EDD28
:1023E000409115015091160180E090E16AE070E0A3
:1023F00025DD112309F459C000910701109108014E
:1024000081E061E03CDF84E090E064E170E04AE07C
:1024100050E033DF84E090E060E070E02ADF82E0AB
:1024200090E063E070E0F1DD82E090E063E070E076
:10243000ECDD82E090E063E070E0E7DD84E090E0D6
:1024400060E070E016DF82E090E063E070E0DDDDE8
:1024500086E090E063E070E0D8DD80E090E062E04C
:1024600070E0D3DD82E090E060E070E0CEDD84E0FB
:1024700090E064E170E04AE050E0FFDE84E090E04C
:1024800064E170E04AE050E0F8DE86E090E063E06E
:1024900070E0BBDD84E090E062E070E0B6DD80E0FB
:1024A00090E1B8014AE050E0E8DEFF2009F443C0C3
:1024B000C0910701D091080181E060E0E0DE84E096
:1024C00090E064E170E04AE050E0D7DE84E090E024
:1024D00060E070E0CEDE82E090E063E070E095DDE9
:1024E00082E090E063E070E090DD10E006C084E000
:1024F00090E063E070E089DD1F5F1F15C0F384E0AA
:1025000090E060E070E0B5DE82E090E063E070E0D3
:102510007CDD82E090E063E070E077DD84E090E0D5
:1025200064E170E04AE050E0A8DE80E090E1BE01A6
:102530004AE050E0A2DE80E06AE070E04AE050E06D
:102540006BDC40911B0150911C0184E090E06AE03B
:1025500070E074DC86E06AE070E04AE050E05CDC49
:1025600082E090E06AE070E04DE750E067DC84E0F4
:102570006AE070E04AE050E04FDCFBDE80E090E192
:1025800068EC70E04AE050E078DEDF91CF911F9177
:102590000F91FF9008952F923F925F926F927F92DA
:1025A0008F929F92AF92BF92CF92DF92EF92FF9263
:1025B0000F931F93CF93DF930E94B70785E399DCB6
:1025C000809105019091060179DC4ADC509002016E
:1025D000652D70E080E090E020ED3DED46E050E0BC
:1025E00098D03B014C0153DC5B016C01209003014E
:1025F00030900401C0910001D0910101EE24FF242C
:10260000870180910901882351F084E090E068E21D
:1026100070E02FDE80E090E063E070E0F6DC84E0C4
:1026200090E06AE070E044EB50E008DC84E090E089
:102630006AE070E04AE050E001DC60911F017091B7
:10264000200180915A01882331F080911D019091E1
:102650001E01680F791F80E890E0DADBC101DADB48
:102660000894E11CF11C011D111D80E0B801A701B7
:102670000E94BC0984E090E06AE070E0AE01DEDB1D
:1026800081E007DC80E06AE070E04AE050E03FDD96
:1026900084E090E06AE070E047E751E0CFDB80E063
:1026A000F8DB84E06AE070E04AE050E030DD84E08E
:1026B00090E06AE070E04AEF50E0C0DB84E090E038
:1026C0006AE070E048EC50E0B9DB84E06AE070E07A
:1026D0004AE050E01CDD84E090E06AE070E04AE00F
:1026E00050E0ACDB552089F0D2DB6A197B098C09FC
:1026F0009D09661577058805990538F0A60CB71C65
:10270000C81CD91C80E0652D02C080E060E042DE7C
:1027100078CF629FD001739FF001829FE00DF11D81
:10272000649FE00DF11D929FF00D839FF00D749F4B
:10273000F00D659FF00D9927729FB00DE11DF91FF7
:10274000639FB00DE11DF91FBD01CF011124089554
:10275000A1E21A2EAA1BBB1BFD010DC0AA1FBB1FA5
:10276000EE1FFF1FA217B307E407F50720F0A21B17
:10277000B30BE40BF50B661F771F881F991F1A9484
:1027800069F760957095809590959B01AC01BD01AE
:10279000CF010895FB01DC0102C005900D9241506C
:0A27A0005040D8F70895F894FFCFD9
:1027AA00E80801C4097102780001012003E80378EE
:1027BA0000FA0064007D007701C800FA007701FA88
:1027CA0000C40977015F057D007102500077016E30
:1027DA00007701F4017701E457140050005A002CE5
:1027EA00012C01FA00FA0001000000381EE797D117
:0A27FA000C000008808080800000C1
:00000001FF
