:10000000E5C2000000C30000FEC20000FCC2000008
:10001000FAC20000F8C20000F6C20000F4C20000FC
:10002000F2C20000F0C200005DC50000ECC200009A
:10003000EAC20000E8C20000E6C20000E4C200001C
:10004000E2C20000E0C20000DEC20000DCC200002C
:10005000DAC20000D8C20000D6C20000D4C200003C
:10006000D2C200000C94C9080C949E08CCC20000B7
:10007000CAC20000C8C20000C6C20000C4C200005C
:10008000C2C20000C0C20000BEC20000BCC200006C
:10009000BAC20000B8C20000B6C20000B4C200007C
:1000A000B2C20000B0C20000AEC2000000000000FA
:1000B00003836BF2F7703BE1F4F350131F979AC779
:1000C0001C14F135E8E7A126EB64CAD4CF58D98ACD
:1000D000CCDBB2783828E26B3BAB8999D0CF434D6B
:1000E000D34C28BF27BF78AC243C135E6FC75E108B
:1000F0006C4435E298B765F19B340E037050C4D759
:1001000073D3AF258720FF3684A394C4A09F879A1A
:10011000A31CEC6857EFBC7B546CD789BF081D5DEE
:10012000BC8B76AF487826BC4BFB4D4EDE8EBD2097
:10013000DD0DD6D229FE86C12A7DED33C11927E710
:10014000C29A4C1536691C0635EA77F411D664AAB2
:1001500012550F58E6A65F4BE52534B90E41FE6DEA
:100160000DC2959FF931C58CFAB2AE7EB149E3302C
:10017000B2CA88C24639D8D145BAB323AEDE79F7C0
:10018000AD5D120559AE42165A2D29E47E113ABAD8
:100190007D9251488961015B8AE26AA96186A07DEE
:1001A0006205CB8F96F69B9C9575F06EBC1D7B41CE
:1001B000BF9E10B34B6D40A048EE2B52A38AE18640
:1001C000A0098A7454FADA675779B1957345A2CBBE
:1001D00070C6C9398435992A87B6F2D86CD2380CE2
:1001E0006F5153FE9BA203ED9821681FD3DA25516E
:1001F000D0594EA324AA1EB027297542CC4DBF96D4
:10020000CFCED4643B3D847738BEEF851C82FCDBC7
:100210001F019729EBF2C73AE871ACC80315661CB9
:1002200000960DEEF4655DFDF7E6360F6293C6614C
:100230006110AD9395E3FD80966096727D045CA697
:100240007E8737548A74674789F70CB5ADCB1FEBAF
:10025000AE4874195ABB240A59384FF8B25C852C41
:10026000B1DFEEDE452CBECD46AFD53F0D549871C3
:100270000ED7F383FA24A390F9A7C86212C302B67B
:1002800011406944E5B33957E63052A5C20C41FB31
:10029000C18F2A09357C7A1A36FF11E8DD9BDB3CD9
:1002A000DE18B0CE2AEBE0DD29688B2F783BF68292
:1002B0007BB89D708F4BCD638CC8A69167AC6C45A5
:1002C000642F07B790DC57A4935F3C56B7632F08A1
:1002D000B4E044FA401314E943907F1BA8F4B5CF6F
:1002E000AB77DE3D5F848E2E5C07E5DC17FCA892C1
:1002F000147FC360E08C9373E30FF881086B325571
:100300000BE859A7FF1B09B4FC986246D8A47118E2
:10031000DB271AEA2FD44AF92C57210BC733EBDF1E
:10032000C4B0802D3043D03E33C0BBCCA6B54BA269
:10033000A536205051C5704352461BB1B922D16534
:10034000BAA1BA974E52EA844DD1817669ED9228CE
:100350006A6EF9DA9E9DA9C99D1EC23B767A08EFA6
:1003600075F9631D810A330E828958FCC97215B272
:10037000CAF17E403E022E533D8145A1D6E58F75E0
:10038000D566E4872195B4942216DF66062ACC3818
:1003900005A9A7CAF15AF7D9F2D99C2B19BD56FF66
:1003A0001A3E3D0DEECD6D1EED4E06ECC4268DC3FE
:1003B000C7A5E6313356B62230D5DDD0DBB1170400
:1003C000D8327CF62CC12CE52F4247170B7E5449BE
:1003D00008FD3FBBFC0E6FA8FF8D045A14E9CE8EBA
:1003E000176AA57CE399F56FE01A9E9DABE1D3D324
:1003F000A862B8215C91E8325F1283C0B4764914D8
:10040000B7F522E6430672F54085190764B90A5923
:10041000673A61AB93C931B8904A5A4A7B2E909E95
:1004200078ADFB6C8C5EAB7F8FDDC08D1AA830E39E
:10043000192B5B11EDD80B02EE5B60F0053FAA248F
:1004400006BCC1D6F24F91C5F1CCFA37D5F0E969B7
:10045000D673829B2280D2882103B97ACA6773AE91
:10046000C9E4185C3D17484F3E9423BD756F6EF389
:1004700076EC0501821F5512819C3EE06AF8F43447
:10048000697B9FC69D88CFD59E0BA427BA37B779C5
:10049000B9B4DC8B4D478C984EC4E76AA5A02DBE3D
:1004A000A623464C52D0165F51537DAD0501090578
:1004B000A1011500250135004501750195100509BB
:1004C00019012910810205012507463B0175049594
:1004D0000165140939814265009501810126FF00FB
:1004E00046FF000930093109320935750895048144
:1004F000020600FF0920950181020A212695089134
:1005000002C012010002000000400D0F9200000125
:10051000010200010902290001010080FA0904001A
:10052000000203000000092111010001225600070A
:100530000502034000080705810340000804030981
:10054000041C0348004F0052004900200043004FA4
:10055000002E002C004C00540044002E000000240B
:100560000350004F004B004B0045004E002000435D
:10057000004F004E00540052004F004C004C00450C
:100580000052000000D5738162EED5E1EB87FB32AB
:1005900090FD4C66EF8B83F4D8CD3598F89A070818
:1005A000C5E3DEEF34208E99125EC41094D3948A92
:1005B0000D8A77CD128360E601000102000102007E
:1005C00001020300000001010102020211241FBE0A
:1005D000CFEFDAE0DEBFCDBF11E0A0E0B1E0ECE6A6
:1005E000FDE302C005900D92A435B107D9F712E0E2
:1005F000A4E5B1E001C01D92AA36B107E1F70E945F
:1006000050130C94B41EFCCC882311F05E9A08950C
:100610005E980895569A80E0F7CF9C0140910C02B5
:1006200050910D024617570718F4F90190E043C0A6
:100630006115710511F0AB01F8CF8091E8008E775C
:100640008093E80040E050E0F0CF809105028823DD
:1006500009F447C0853009F446C08091E80083FD65
:1006600044C08091E80082FD36C08091E80080FFA0
:1006700022C08091F3009091F200782F60E0292F42
:1006800030E0262B372B07C081918093F100415039
:1006900050402F5F3F4F4115510519F0203431056F
:1006A00098F390E02034310509F491E08091E8005E
:1006B0008E778093E8004115510539F6992329F684
:1006C0000AC080910502882361F0853061F0809135
:1006D000E80083FD0AC08091E80082FFF2CF80E04D
:1006E000089582E0089583E0089581E008959C01D3
:1006F00040910C0250910D024617570718F4F9016A
:1007000090E044C06115710511F0AB01F8CF809104
:10071000E8008E778093E80040E050E0F0CF8091D1
:100720000502882309F448C0853009F447C0809148
:10073000E80083FD45C08091E80082FD37C08091CC
:10074000E80080FF23C08091F3009091F200782FA1
:1007500060E0292F30E0262B372B08C0849180934E
:10076000F1003196415050402F5F3F4F41155105E8
:1007700019F02034310590F390E02034310509F46C
:1007800091E08091E8008E778093E8004115510553
:1007900031F6992321F60AC080910502882361F081
:1007A000853061F08091E80083FD0AC08091E80007
:1007B00082FFF2CF80E0089582E0089583E00895FB
:1007C00081E00895BF92CF92DF92EF92FF920F9354
:1007D0001F93CF93DF93182F092F7B016A01EFD06E
:1007E000B82E8823B1F5812F902F9C01E901C11407
:1007F000D10439F0F60180819181E81AF90AC80F15
:10080000D91F00E010E022C08091E80085FD16C0ED
:100810008091E8008B778093E8009BD3C114D104CA
:1008200049F0F60180819181800F911F918380832F
:1008300085E010C0C4D0882349F00CC08091F1003D
:1008400089930894E108F1080F5F1F4FE114F10448
:10085000D9F68B2DDF91CF911F910F91FF90EF90E3
:10086000DF90CF90BF900895BF92CF92DF92EF922A
:10087000FF920F931F93CF93DF93182F092F7B01C4
:100880006A019DD0B82E8823B1F5812F902F9C014D
:10089000E901C114D10439F0F60180819181E81A8F
:1008A000F90AC80FD91F00E010E022C08091E800CB
:1008B00085FD16C08091E8008E778093E80049D3CB
:1008C000C114D10449F0F60180819181800F911FFC
:1008D0009183808385E010C072D0882349F00CC0DA
:1008E00089918093F1000894E108F1080F5F1F4F90
:1008F000E114F104D9F68B2DDF91CF911F910F9167
:10090000FF90EF90DF90CF90BF900895382F282F61
:100910002EC0822F8F708093E900231721F4762F49
:10092000942F50E006C07091EC009091ED00509132
:10093000F00091FF1BC08091EB008E7F8093EB0055
:100940008091ED008D7F8093ED008091EB008160C0
:100950008093EB007093EC009093ED005093F000C7
:100960008091EE0087FD02C080E008952F5F273060
:1009700080F23F703093E90081E008958091060293
:1009800088239CF404C0809105028823B9F08091EB
:10099000E80082FFF8CF8091E8008B778093E80031
:1009A000089580910502882349F08091E80080FF36
:1009B000F8CF8091E8008E778093E8000895409109
:1009C000E4005091E50024E68091EC0080FF24C013
:1009D0008091E80080FD1EC080910502882311F4FB
:1009E00082E00895853011F483E008958091EB0052
:1009F00085FF02C081E008958091E4009091E500B8
:100A00008417950709F3222311F484E008952150F7
:100A1000AC01DACF80E008958091E80082FFDCCF5E
:100A2000F9CFEF92FF920F931F934FD056D008ED5E
:100A300010E0F80180818F778083808180688083D7
:100A400080818F7D808319BC109205021092010273
:100A5000109203021092020280EEE82EF12CF701B0
:100A600080818B7F8083F80180818160808380E03A
:100A700060E042E34BDFE1EEF0E080818E7F808337
:100A8000E2EEF0E0808181608083808188608083F5
:100A9000F70180818E7F8083F8018081806180836F
:100AA0001F910F91FF90EF900895E8EDF0E08081A5
:100AB0008F7E8083E7EDF0E080818160808384E039
:100AC00082BF81E080930402ACCFE8EDF0E080814A
:100AD0008E7F80831092E20008951092DA001092C7
:100AE000E10008951F920F920FB60F9211242F93D9
:100AF0003F934F935F936F937F938F939F93AF93A6
:100B0000BF93EF93FF938091E10082FF0AC0809131
:100B1000E20082FF06C08091E1008B7F8093E100BC
:100B200017D28091DA0080FF1DC08091D80080FF2D
:100B300019C08091DA008E7F8093DA008091D9000D
:100B400080FF0CC080E189BD82E189BD09B400FE4F
:100B5000FDCF81E0809305028CD304C019BC1092B4
:100B6000050288D38091E10080FF18C08091E200E7
:100B700080FF14C08091E2008E7F8093E20080911C
:100B8000E20080618093E2008091D80080628093CF
:100B9000D80019BC85E080930502DAD18091E1008C
:100BA00084FF2FC08091E20084FF2BC080E189BDCB
:100BB00082E189BD09B400FEFDCF8091D8008F7D10
:100BC0008093D8008091E1008F7E8093E100809136
:100BD000E2008F7E8093E2008091E200816080934A
:100BE000E20080910102882311F084E007C0809127
:100BF000E30087FD02C081E001C083E0809305022D
:100C0000A7D18091E10083FF22C08091E20083FFA1
:100C10001EC08091E100877F8093E10082E0809395
:100C20000502109201028091E1008E7F8093E10025
:100C30008091E2008E7F8093E2008091E2008061EB
:100C40008093E20080E060E042E360DE81D1FF91CA
:100C5000EF91BF91AF919F918F917F916F915F9134
:100C60004F913F912F910F900FBE0F901F901895AD
:100C70001F93DF93CF93CDB7DEB7AC970FB6F89441
:100C8000DEBF0FBECDBFE6E0F2E08091F1008193C0
:100C900022E0EE30F207C9F7EED28091E80083FF40
:100CA0003FC18091060230910702353009F48DC0B2
:100CB000363040F43130E1F1313070F0333009F04A
:100CC0002FC136C0383009F4FDC0393009F40CC1E9
:100CD000363009F025C19CC0803821F0823809F0F7
:100CE0001FC108C090910202809103028823B1F0D5
:100CF000926014C080910A028F70873008F010C192
:100D00008093E9008091EB0090E025E0969587952F
:100D10002A95E1F7982F91701092E9008091E800F0
:100D2000877F8093E8009093F1001092F100D5C086
:100D3000882319F0823009F0F3C090E08F71907031
:100D4000009721F0029709F0EBC00CC080910802D7
:100D5000813009F0E5C010920302333081F58093B1
:100D600003022DC080910802882349F520910A02D0
:100D70002F70822F8150863008F0D2C02093E90076
:100D80008091EB0080FF1BC0333021F48091EB0099
:100D9000806213C08091EB0080618093EB0081E062
:100DA00090E002C0880F991F2A95E2F78093EA002D
:100DB0001092EA008091EB0088608093EB00109223
:100DC000E9008091E800877F8BC0882309F0A8C0E4
:100DD000109108021F778091E3008078812B809327
:100DE000E3008091E800877F8093E800C7DD809171
:100DF000E80080FFFCCF8091E30080688093E300EF
:100E0000112311F482E001C083E08093050288C0C1
:100E10008058823008F084C08091080290910902C5
:100E200023E08C3D920709F033C083E08C838AE293
:100E30008B837FB7F894DE0115966EE040E050E0BA
:100E400011E2E62FF0E010935700849140FF03C0B9
:100E500082958F706F5F8F70282F30E08A3018F086
:100E6000C901C79602C0C901C0968D939D934F5F7B
:100E70005F4F4431510529F77FBF8091E800877F9C
:100E80008093E800CE0103966AE270E0C6DB14C0EE
:100E900060910A0270910B02AE014F5F5F4FA0D1CB
:100EA000BC01009709F43CC08091E800877F8093E3
:100EB000E80089819A811BDC8091E8008B77809320
:100EC000E8002EC0803861F58091E800877F80932C
:100ED000E800809101028093F1008091E8008E7714
:100EE0008093E8004BDD1CC08823D1F49091080268
:100EF0009230B0F48091E800877F8093E80090936F
:100F000001023CDD80910102882331F48091E300ED
:100F100087FD02C081E001C084E0809305021AD2FF
:100F20008091E80083FF0AC08091E800877F80936A
:100F3000E8008091EB0080628093EB00AC960FB6E6
:100F4000F894DEBF0FBECDBFCF91DF911F91089502
:100F500008951F9380910502882371F01091E90094
:100F60008091EC001092E9008091E80083FF01C0BD
:100F70007FDE1F701093E9001F91089581E044CB3C
:100F800049CB08956F927F928F929F92AF92BF92BA
:100F9000CF92DF92EF92FF920F931F93DF93CF9345
:100FA00000D000D0CDB7DEB77B018C014A015901DA
:100FB000CC24DD243E010894611C711C20C0F40186
:100FC000EC0DFD1D60816E2570E0660F771F660FCA
:100FD000771F64557F4FC30144E050E00E94A21E7A
:100FE000EF2CF02E012F112789819A81AB81BC81D2
:100FF000E826F9260A271B270894C11CD11CCA140D
:10100000DB04E8F2B701C8010F900F900F900F902A
:10101000CF91DF911F910F91FF90EF90DF90CF90D4
:10102000BF90AF909F908F907F906F900895EF92B8
:10103000FF920F931F937C018B01045010406FEFC0
:101040007FEF8FEF9FEFA70198019CDF0E0D1F1D13
:10105000F80160837183828393831F910F91FF90C6
:10106000EF9008959B01AC01F89460E079E08DE386
:1010700090E00E94801E21503040404050405695E4
:101080004795379527953093CD002093CC0082E08B
:101090008093C80088E98093C90086E08093CA00E5
:1010A0001092670180916701809366011092B101EF
:1010B0008091B1018093B001789408959091660178
:1010C0009F5F923108F090E08091670120E08913E2
:1010D00021E0822F0895282F909166019F5F923121
:1010E00008F090E0809167018917E1F3E92FF0E0C3
:1010F000EC5AFE4F20839093660188EB8093C900E1
:1011000008959091B0018091B10120E0981321E001
:10111000822F08959091B0018091B1019817D1F379
:101120009091B1019F5F983408F090E0E92FF0E0D2
:10113000E859FE4F80819093B10108951F920F925C
:101140000FB60F9211248F939F93EF93FF9390917B
:10115000660180916701981721F488E98093C9009E
:101160000FC0909167019F5F923108F090E0E92FE6
:10117000F0E0EC5AFE4F80818093CE00909367019F
:10118000FF91EF919F918F910F900FBE0F901F9045
:1011900018951F920F920FB60F9211242F938F93D1
:1011A0009F93EF93FF932091CE009091B0019F5FAA
:1011B000983408F090E08091B101981739F0E92F48
:1011C000F0E0E859FE4F20839093B001FF91EF913A
:1011D0009F918F912F910F900FBE0F901F90189598
:1011E000DA019330B1F0943028F4913041F092302C
:1011F00079F50AC0913211F1923251F524C0E2E042
:10120000F5E022E130E028C0E4E1F5E029E230E059
:1012100023C0813049F0813018F08230C9F40AC00F
:10122000EDE3F5E0849103C0E1E4F5E08491282F3B
:1012300030E012C0EFE5F5E08491F9CFE6E2F5E0A9
:1012400029E030E009C0ECEAF4E026E530E004C033
:10125000E0E0F0E020E030E0ED93FC93C901089578
:101260006091B2017091B3018091B4019091B50188
:1012700008950895089508956CCE08950F931F93CF
:10128000DF93CF93CDB7DEB72F970FB6F894DEBFBD
:101290000FBECDBF288739874A875B876C877D87DC
:1012A0008E879F8780910502843009F047C082E0D5
:1012B0008093E9008091E80082FF14C08091E800EB
:1012C00085FF0BC08E010F5F1F4FC80167E070E004
:1012D00040E050E077DA8823C1F78091E8008B770F
:1012E0008093E80081E08093E9008091E80080FF2E
:1012F00025C08E01085F1F4FC80168E070E040E024
:1013000050E0B2DA8823C1F78091E8008E778093AD
:10131000E8008091B2019091B301A091B401B09125
:10132000B5010196A11DB11D8093B2019093B30147
:10133000A093B401B093B50181E001C080E02F9685
:101340000FB6F894DEBF0FBECDBFCF91DF911F91D6
:101350000F91089582E060EC42E3D8DA81E061EC1D
:1013600042E3D4CA9091BB018091BC01891719F462
:1013700020E030E010C0892F90E083709070880FDB
:10138000991F9C0143E0220F331F4A95E1F7281B68
:10139000390B225F3D4FC90108950F931F93CF93DF
:1013A000DF938091C401882309F043C08091BB0181
:1013B00090E083709070880F991FFC0163E0EE0F3E
:1013C000FF1F6A95E1F7E81BF90BE25FFD4F8DEE19
:1013D000808385E481838F010E5F1F4F828193811B
:1013E000A481B581E8018C839D83AE83BF83809106
:1013F0003D0190913E01A0913F01B0914001828357
:101400009383A483B5830196A11DB11D80933D01F3
:1014100090933E01A0933F01B093400121DFF8017A
:1014200060877187828793878091BB018F5F8093EC
:10143000BB01DF91CF911F910F910895CF93DF935F
:10144000EC010EDF6093B6017093B7018093B80191
:101450009093B9016091BA018091BB01861701F1A7
:10146000862F90E083709070FC01B3E0EE0FFF1FB9
:10147000BA95E1F7E81BF90BEE0FFF1FE05FFD4F98
:10148000288139814A815B8180819181A281B381E8
:10149000281739074A075B0719F46F5F6093BA0191
:1014A000DF91CF910895481711F480E00895842FBB
:1014B0001FD181E008950F931F938C011092BA0100
:1014C0001092BB011092BC011092BD01AFD4F80183
:1014D0006081718182819381A9D01F910F910895BC
:1014E000FC012091BC01622F70E08091BA01AB0138
:1014F000481B51094430510514F080E008954081A3
:10150000409544502F5F2093BC01CB0183709070B5
:10151000880F991F9C0153E0220F331F5A95E1F762
:10152000281B390B225F3D4FC901BF0150E00E94CB
:10153000AB1E81E008959091BB018091BA0198178C
:1015400009F440C02091BD01291721F12F5F20939C
:10155000BD01215030E023703070220F331FC901CC
:1015600073E0880F991F7A95E1F7821B930B825FD6
:101570009D4FA4D19091BD018091BB01981701F5B9
:101580006FDE6093B6017093B7018093B8019093BA
:10159000B90116C065DE2091B6013091B7014091C6
:1015A000B8015091B901621B730B840B950B605805
:1015B00072408040904030F08091BA018093BD012C
:1015C00081E0089580E008956A5F6093C001962FDE
:1015D0009095909346028093470286E492E070E0F3
:1015E00026CDEF92FF920F931F937B018C01809188
:1015F000C001882311F080E014C0E0924802F0920C
:10160000490200934A0210934B0220934C023093FC
:101610004D0240934E0250934F0284E168E0D4DFC4
:1016200081E01F910F91FF90EF9008959B01AC0115
:101630008091C001882311F080E008952093480232
:101640003093490240934A0250934B0281E164E097
:10165000BBDF81E008959B01AC018091C00188232C
:1016600011F080E00895209348023093490240939E
:101670004A0250934B0280E164E0A6DF81E00895C6
:101680009C018091C001882311F080E0089530937F
:1016900049022093480287E062E096DF81E00895E6
:1016A000609348027093490280934A0290934B02E0
:1016B00086E064E089DF81E00895609348027093DA
:1016C000490280934A0290934B0285E064E07CDFFC
:1016D00081E008958093480283E061E075DF81E056
:1016E00008958093480282E061E06EDF81E0089512
:1016F0008093480281E061E067DF81E00895809196
:10170000C001882311F080E0089580E060E05CDF94
:1017100081E00895EF92FF920F931F93FB018334B2
:1017200009F470C0843440F4813431F1823408F01B
:1017300040C0803439F408C0843409F484C086344D
:1017400009F48EC080E096C0443009F08BC08081DF
:101750009181A281B3810196A11DB11D80934101A8
:1017600090934201A0934301B09344016081718141
:10177000828193815BDF7DC0443009F073C08EE0CD
:101780008093C00181EF8093460284E180934702F9
:1017900080819181A281B381809348029093490214
:1017A000A0934A02B0934B028BE091E8A6E7B8E71A
:1017B0001CC0443009F056C08EE08093C00181EF18
:1017C0008093460284E18093470280819181A281C7
:1017D000B3818093480290934902A0934A02B09348
:1017E0004B0288EE98ECA6E7B8E780934C02909302
:1017F0004D02A0934E02B0934F0286E492E06EE059
:1018000070E01FC0443071F58BE08093C00184EF1D
:101810008093460282E18093470280819181A28178
:10182000B3818093480290934902A0934A02B093F7
:101830004B028091BE0180934C0286E492E06BE003
:1018400070E0F5DB16C0443069F4E080F18002817D
:10185000138106DD9B01AC01C801B701C2DE09C0DE
:10186000443019F0842F44DF04C0222311F0CB014F
:1018700022DE81E01F910F91FF90EF900895833059
:1018800018F4813038F414C0843021F0813161F0D3
:1018900080E0089582E18093C001E6E4F2E0DF0198
:1018A0001D928A95E9F704C0443021F0842F20DF8F
:1018B00081E00895CB01C2DD81E008950F931F936D
:1018C000FC01208120952093C00106E412E030E065
:1018D00024503040C801BF01A9010E94AB1E609195
:1018E000C001C80170E0A3DB1F910F9108950F9311
:1018F0001F9307DC882319F41092C20168C010916D
:10190000C10108DCE12FF0E0E85AFD4F80831F5F42
:101910001093C10180915802082F0095113059F59C
:10192000882359F41092C1018091C201813009F0DD
:10193000E6DE81E08093C2014AC0063010F0033138
:10194000D0F01092C1018091C201823011F0802F3D
:10195000CFDE82E08093C20139C0D3DB8823B1F1AE
:101960001091C101D7DBE12FF0E0E85AFD4F8083F1
:101970001F5F1093C1012091C101201770F330E067
:10198000245030406FEF7FEF8FEF9FEF48E552E03C
:10199000F9DAE091C101F0E0EC5AFD4F208131818C
:1019A00042815381621773078407950759F010929B
:1019B000C1018091C201823049F0802F92DE0093F4
:1019C000C00104C01092C20182E001C081E01F91F9
:1019D0000F9108958091C001882389F408956EDBEA
:1019E000882311F481E008959091BF01E92FF0E080
:1019F000EA5BFD4F80819F5F9093BF016CDB90910C
:101A0000BF018091C001981750F31092BF0110924E
:101A1000C00180E00895BF92CF92DF92EF92FF92D3
:101A20000F931F93D7DF882309F091C060DF8823CD
:101A300011F481DD8DC0813009F489C0B090C101FD
:101A40008AEFB80E1092C101D09059028FE38D1524
:101A500048F08D2D6AE572E04B2D11DF882309F0E7
:101A600076C053C0E0905A02F0905B0200915C0295
:101A700010915D022091410130914201409143015A
:101A800050914401CC24E216F3060407150719F41B
:101A9000CC24C39412C0D801C701821B930BA40BA2
:101AA000B50B181619061A061B063CF480E4D81666
:101AB00021F0CA01B90101DE4AC08D2D807C80343D
:101AC000C1F48D2D6AE572E04B2D2C2D23DE882389
:101AD00069F4E091C501F091C6013097B1F08D2D08
:101AE0006AE572E04B2D0995882379F0CC2079F1D5
:101AF00017C0CC2021F4C801B701ADDD28C080910A
:101B0000C7019091C801892B19F48D2DE3DD1FC009
:101B100088E592E0E5DC8823B9F0C801B7019BDDD8
:101B20008091410190914201A0914301B091440103
:101B30000196A11DB11D8093410190934201A09394
:101B40004301B093440103C0C801B701A9DD81E09E
:101B50001F910F91FF90EF90DF90CF90BF9008956D
:101B6000EF92FF920F931F93209145013091460110
:101B70004091470150914801DA01C9016DE0880F99
:101B8000991FAA1FBB1F6A95D1F782279327A42705
:101B9000B5277C018D0121E116950795F794E7940F
:101BA0002A95D1F7E826F9260A271B27A8019701CD
:101BB00085E0220F331F441F551F8A95D1F72E252C
:101BC0003F254027512720934501309346014093FC
:101BD000470150934801B901CA011F910F91FF902D
:101BE000EF900895FC01DB01118210821D921C927E
:101BF000FA0110820895089590E0FC01EB57FA4F26
:101C0000E49123E3629FB0011124680F791FE62756
:101C100087EC90E0E89F802D112408951F93CF93C7
:101C2000DF93CDECD1E010E0812F6091CC01E4DFB7
:101C300089931F5F1333C1F7DF91CF911F910895EF
:101C4000DF92EF92FF920F931F9393E0899FC00161
:101C50001124F82EE090CC016E2DCEDFD82E0F2D62
:101C600010E08F2D8F5F6E2DC7DF03531E4FF801DD
:101C70009181582F592740E020812D2530E0242BD9
:101C8000352BC9011F910F91FF90EF90DF900895C0
:101C90000F931F9393E0899F800111240E5F802F83
:101CA0006091CC01A9DFEDECF1E0E00FF11D908136
:101CB000892790E01F910F9108951F93182FC0DF7F
:101CC000892B19F080E090E009C0812FE1DF20E04E
:101CD000892B09F021E081E02827822F1F910895A8
:101CE000DF92EF92FF920F931F93F62EE72E93E071
:101CF000899FC0011124D82E082F10E06091CC01DB
:101D00007BDF03531E4FF826F801F0828D2D8F5F85
:101D10006091CC0171DFE826F801E1821F910F91FB
:101D2000FF90EF90DF900895FF920F931F93F62E90
:101D300093E0899F800111240E5F802F6091CC0178
:101D40005BDFEDECF1E0E00FF11DF826F0821F9172
:101D50000F91FF900895EF92FF920F931F93CF93EF
:101D6000DF938091CB01882309F43BC000914B01A4
:101D700010914C01C0E0D0E071E0E72EF12C8C2FE7
:101D80005FDF892B59F4C7010C2E02C0880F991F01
:101D90000A94E2F780959095082319232196CE3076
:101DA000D10569F710934C0100934B018EE048DF99
:101DB000892B19F488E080934D018FE041DF892B56
:101DC00029F480E880934E0180934F0180E138DF51
:101DD000892B29F480E8809350018093510110925F
:101DE000CB01DF91CF911F910F91FF90EF9008955C
:101DF00080914B0190914C01892BA9F480914D0168
:101E0000883089F480914E01803869F480914F01C7
:101E1000803849F480915001803829F490E0809115
:101E20005101803809F091E0892F08951F9381E0D6
:101E30008093C4018093CB0110E0812F60E070E0BB
:101E40004FDF812F60E070DF1F5F1131B1F783DF5B
:101E50001F910895FF920F931F93CF93DF937BDF22
:101E600020914B0130914C0140914D0150914E0118
:101E700060914F01709150018091510190915201F8
:101E8000FDD9F82EF9D9FF2011F411E037C010E088
:101E9000812FD6DEEC01812FFBDE682F8091C401FB
:101EA000882321F000E0C0E0D0E007C0062F209793
:101EB00011F0219702C0611101508091CC018F5F18
:101EC0008093CC01812FBE010BDF812F602F2CDF8F
:101ED0008091CC0181508093CC018F5F1F5F1131C5
:101EE000B9F68093CC0181E08093CB01E091C901E8
:101EF000F091CA01309709F0099512E38CDD88232F
:101F000011F01150D9F78F2DDF91CF911F910F91C3
:101F1000FF900895DF92EF92FF920F931F93CF935C
:101F2000DF93F82EE62ED42EE9018091C401882398
:101F300019F090DF81E01DC0FF2011F410E101C015
:101F40001FE0812FBADE8823A1F0812FBE01C8DEF9
:101F5000812F602FE9DEFF2029F0E0924E01D09220
:101F60004F0104C0E0925001D092510181E0809372
:101F7000CB01DF91CF911F910F91FF90EF90DF90F8
:101F800008950F931F93CF93DF93082FEB01142F26
:101F90008091C401882319F05DDF81E00FC08EE0DD
:101FA0008CDE882359F08EE0BE019ADE8EE0612F30
:101FB000BBDE00934D0181E08093CB01DF91CF9197
:101FC0001F910F9108956F927F928F929F92AF927F
:101FD000BF92CF92DF92EF92FF920F931F93CF9316
:101FE000DF936C015B01742E8091C401882311F092
:101FF00031DF44C0C0E0D0E001E010E0C8010C2EA9
:1020000002C0880F991F0A94E2F78C219D21892B29
:1020100021F08C2F52DE882391F12196CE30D1050C
:1020200069F700914B0110914C01C0E0D0E0E1E074
:102030008E2E912C6624639474010C2E02C0EE0C3B
:10204000FF1C0A94E2F7C7018C219D21892B71F0B6
:102050008C2F33DE882351F08C2FB50141DE8C2F7D
:10206000672D62DE0E291F296092CB012196CE30AA
:10207000D10511F710934C0100934B0181E0DF91E2
:10208000CF911F910F91FF90EF90DF90CF90BF9075
:10209000AF909F908F907F906F9008951F9311E065
:1020A00005C010E08091C401882361F4D3DE882349
:1020B000C1F3112339F08091C401882319F481E020
:1020C00090E0DEDA1F91089585C20895A4C00895B6
:1020D000EF920F931F93CF93DF93982F762F8A0160
:1020E000E9014830510510F408E010E080E0692F64
:1020F000472F9801EE2435D1CE01E8DFDF91CF9153
:102100001F910F91EF900895EF920F931F93CF932C
:10211000DF93982F762F8A01E9014830510510F49A
:1021200008E010E081E0692F472F9801EE2419D1D3
:10213000CE01CCDFDF91CF911F910F91EF900895E9
:10214000CF93DF939B01EA016530710510F425E020
:1021500030E0B901A90120E072D1CE01B7DFDF91F3
:10216000CF910895CF93DF939B01EA01653071050C
:1021700010F425E030E0B901A90120E04BD2CE01F6
:10218000A5DFDF91CF9108956BC808950F931F933A
:102190000091490110914A0122EF3DE030934A013C
:1021A000209349010E94040310934A0100934901BE
:1021B0001F910F9108958093BE0184B7877F84BFDC
:1021C00088E10FB6F89480936000109260000FBE13
:1021D000E1E6F0E080E88083108260E072EC81E06C
:1021E00090E00E9432080E945505789417CD813006
:1021F00029F0813030F0823051F406C020E430E024
:1022000008C024E030E005C020E830E002C020E053
:1022100030E0C90108950F931F93CF93DF938C0192
:102220008091C401882341F4C0E0D0E002C036DFD1
:102230002196C017D107D8F3DF91CF911F910F914D
:102240000895DF92EF92FF920F931F93CF93DF9346
:102250007C01EB01D42E84DC162F13701330D9F3DC
:1022600000E0113029F0113030F0123051F406C086
:10227000EAEAF1E108C0E6E0F2E105C0E3EAF1E1F3
:1022800002C0E0E0F0E0C701BE014D2D09958823B2
:1022900011F081E008C01F5F133009F410E00F5FF8
:1022A0000330F9F680E0DF91CF911F910F91FF90FD
:1022B000EF90DF900895DF92EF92FF920F931F93BC
:1022C000CF93DF938C017B01EA01D22E8091C40170
:1022D000882311F009C0E2DEC801BE014D2DB1DF37
:1022E0008823C9F3C70197DFDF91CF911F910F9129
:1022F000FF90EF90DF90089545E050E023E0DBCFC2
:102300000F93FA01022F6230710591F0633071056D
:1023100018F4672B41F00AC06430710559F066303B
:10232000710521F40AC060E840E009C060E806C019
:102330006FEF04C060E84FEF02C060E040E89F012B
:10234000E9DD0F910895FC01DB01242F80E0BF013E
:10235000AD01D6CFFC01DB01242F81E0BF01AD012F
:10236000CFCFCF92DF92EF92FF920F931F93DF9325
:10237000CF9300D000D00F92CDB7DEB7C82ED62EA7
:10238000F42E3A8329831C830B83ED828091C40150
:102390008823D9F4E0914901F0914A01CE010196D8
:1023A000BE016D5F7F4FAE014B5F5F4F099501C06E
:1023B00075DE2B813C818C2D6D2D4F2D0D81AADD7D
:1023C0008823B1F389819A8126DF0F900F900F90B7
:1023D0000F900F90CF91DF911F910F91FF90EF9091
:1023E000DF90CF900895EF920F931F938901EE2411
:1023F000B8DF1F910F91EF900895EF920F931F9305
:10240000EE24AFDF1F910F91EF9008958230910578
:1024100081F08330910518F4892B39F008C084309D
:10242000910549F0069719F408C080E007C088E0DC
:1024300005C082E003C084E001C086E0A2CD1F9306
:10244000DF93CF9300D000D00F92CDB7DEB7182F17
:102450007A8369835C834B832D838091C4018823B5
:10246000C9F4E0914901F0914A01CE010196BE0103
:102470006D5F7F4FAE014B5F5F4F099501C00EDE70
:102480006B817C81812F4D817CDD8823C1F3898123
:102490009A81C1DE0F900F900F900F900F90CF9107
:1024A000DF911F91089545E050E023E0C8CF23E07D
:1024B000C6CFEF92FF920F931F93CF93DF937C01D0
:1024C0008091C401882329F510E0C0E0D0E01EC04F
:1024D000112321F0E3DD2196115018C041DB162FA6
:1024E00013701330D9F300E0812F81DE65E070E0D6
:1024F00043E069DD882311F013E008C01F5F13304B
:1025000009F410E00F5F033079F711E0CE15DF0515
:10251000F8F2DF91CF911F910F91FF90EF90089506
:10252000AF92BF92CF92DF92EF92FF920F931F93E1
:10253000CF93DF935C016B017A018091C401882302
:1025400009F03DC0C0E0D0E002C0A8DD2196C50181
:1025500065E070E043E037DD8823B9F384E090E084
:102560005ADE02C09BDD2196C60165E070E043E0C3
:102570002ADD8823B9F3CE15DF0508F5C50165E02E
:1025800070E043E020DD8E010C5F1F4FCE15DF05AC
:10259000B0F484DD2196C017D107C1F7C60165E00C
:1025A00070E043E010DD8E010C5F1F4FCE15DF059C
:1025B00030F474DD2196C017D107C1F7DFCFDF916A
:1025C000CF911F910F91FF90EF90DF90CF90BF9030
:1025D000AF900895EF92FF920F931F93CF93DF93E5
:1025E0007C018B018091C401882369F4C0E0D0E0B4
:1025F00007C0C70165E070E043E0E5DC4FDD2196F0
:10260000C017D107B0F3DF91CF911F910F91FF90C9
:10261000EF9008950F931F93DF93CF9300D000D0D6
:102620000F92CDB7DEB78C017A8369835C834B83CD
:102630002D838091C4018823C9F4E0914901F09170
:102640004A01CE010196BE016D5F7F4FAE014B5F27
:102650005F4F099501C022DD6B817C81C8014D81EE
:10266000B2DC8823C1F389819A81D5DD0F900F9068
:102670000F900F900F90CF91DF911F910F910895C0
:1026800045E050E023E0C6CF23E0C4CF8091C401F1
:10269000882311F0089502DDABDB8823E1F708956C
:1026A000CF93DF930E94C00789E085DD8AE596E13C
:1026B0009093C8018093C7018091C401882329F0B9
:1026C0001092C40180E00E940403C4DB0E94B2099E
:1026D000EC01009789F3BC016E5F7F4F4881409504
:1026E0004650E091C701F091C8018981099588237E
:1026F00019F789810E946A0BDFCF882339F080E0C7
:1027000090E16AE070E04AE550E006C080E090E1C8
:102710006AE070E04EEB50E025DD80E090E16AE099
:1027200070E040E050E01ECDAF92BF92CF92DF92BA
:10273000EF92FF920F931F938C017B016A01590165
:1027400088E090E062E370E045DF09581E4F88E0C2
:1027500090E064E070E0A801E3DE88E090E0B7017B
:1027600039DFC601A6DEC501B1DC1F910F91FF90D4
:10277000EF90DF90CF90BF90AF90089588E090E009
:1027800064E670E027DF88E090E064E070E042E318
:1027900050E0C6DE88E090E060E971E01BCF0F9367
:1027A0001F938C0183E090E091DCC80160E070E051
:1027B000A3DD1F910F910895DF92EF92FF920F9387
:1027C0001F93CF93DF93F42E282F30E0C901885454
:1027D0009A4FFC0194912E533A4FF9018491262F80
:1027E00030E0F901E854FA4FD4902E533A4FF901F2
:1027F000E490092F182FC0E0D0E02AC0E11640F481
:10280000FF2019F080E090E0CADF2396115020C02D
:102810001E1558F4FF2019F084E090E0C0DF2396E5
:102820001F5F1330A9F401E013C00D1540F4FF2021
:1028300019F082E090E0B3DF23960F5F09C0D01655
:1028400038F4FF2019F086E090E0A9DF23960150CC
:102850000D15A1F61E1591F6CE01DF91CF911F91B6
:102860000F91FF90EF90DF900895EF92FF920F93FA
:102870001F93E82EF62E82E090E064E070E03CDDED
:1028800082E090E064E070E037DD84E090E063E0B7
:1028900070E032DD84E090E064E070E02DDD82E005
:1028A00090E060E070E028DD84E090E063E070E0BC
:1028B000E7DE84E090E063E070E0E2DEFF2011F408
:1028C00002E301C001E310E084E090E063E070E027
:1028D00013DD1F5F1017C0F3FF2019F46DE270E0E5
:1028E00002C068E270E082E090E006DD84E090E003
:1028F00063E070E001DD84E090E063E070E0FCDC28
:1029000084E090E063E070E0F7DC84E090E063E076
:1029100070E0F2DCEE2031F484E090E06DE270E0F3
:10292000AFDE18C084E090E063E070E0A9DEFF2035
:1029300011F40CE001C00AE010E084E090E063E0F4
:1029400070E0DADC1F5F1017C0F384E090E060E015
:1029500070E0D2DC1F910F91FF90EF9008950F93DC
:102960001F93882319F413E004E002C012E003E08F
:1029700084E090E064E170E04AE050E085DE80E0D1
:1029800090E060E070E0B8DC84E090E0612F70E0FF
:1029900077DE82E090E0602F70E0AEDC80E090E0D7
:1029A000612F70E0A9DC82E090E0602F70E0A4DC91
:1029B00084E090E060E070E063DE82E090E0602F11
:1029C00070E09ADC82E090E0602F70E095DC82E0BD
:1029D00090E060E070E090DC84E090E064E170E022
:1029E0004AE050E051DE1F910F910895FF920F933E
:1029F0001F93CF93DF93F82E882309F458C06623E2
:102A000011F404E001C003E084E090E064E170E0D0
:102A10004AE050E039DE10E0CF2DD0E0219706C02B
:102A200084E090E063E070E067DC1F5F812F90E05E
:102A30008C179D07ACF384E090E060E070E05CDC14
:102A400084E090E063E070E01BDE82E090E0602FC5
:102A500070E052DC10E006C084E090E063E070E0DB
:102A60004BDC1F5F812F90E08C179D07ACF384E057
:102A700090E060E070E040DC84E090E063E070E0D3
:102A8000FFDD82E090E0602F70E036DC82E090E0D5
:102A9000602F70E031DC82E090E060E070E02CDCE0
:102AA00084E090E064E170E04AE050E0EDDDDF9129
:102AB000CF911F910F91FF900895EF92FF920F9386
:102AC0001F93F82E062FE42E80E090E063E070E084
:102AD00013DC10E006C082E090E063E070E00CDC04
:102AE0001F5F1F15C0F380E090E063E070E004DC3E
:102AF00084E090E068EC70E0C3DDEE2071F010E05F
:102B000084E090E063E070E0F7DB1F5F1431C1F711
:102B100080E090E063E070E0EFDB82E390E07BDB5D
:102B200082E063E070E0BFDC06C084E090E063E038
:102B300070E0E2DB01500023C1F71F910F91FF907D
:102B4000EF9008951F93182F862FD7DD8AE590E028
:102B5000BDDA112369F184E06AE070E0A4DC80E072
:102B60006AE070E0A0DC6091290170912A0184E0A4
:102B700090E04AE050E088DD86E06AE070E093DCB7
:102B80006091290170912A0184E090E079DD81E073
:102B900090E06AE070E074DD86E06AE070E083DC7B
:102BA00060912B0170912C0184E090E069DD03C0FD
:102BB00082E390E08BDA1F9108959F92AF92BF92CB
:102BC000CF92DF92EF92FF920F931F93CF93DF93F9
:102BD000182F962E7A01E901D7DA5B016C0180E0AB
:102BE00090E1B7014AE050E04FDD183008F017E0FF
:102BF000812F60E0492D61DF84E090E0BE01EADCD6
:102C0000802F60E09FDF8CE291E060DABDDA9B010B
:102C1000AC012A193B09C901DF91CF911F910F9196
:102C2000FF90EF90DF90CF90BF90AF909F9008956E
:102C3000CF93DF93EA018823D1F0CB0147DA80E01C
:102C400060E070E04AE050E032DC8AE090E06DE75E
:102C500070E04AE050E018DD81E792E02ADC81E094
:102C6000C53FD80740F0CE01845F914003C0CB013F
:102C700020DCCE012BDADF91CF91089584E065E06E
:102C800070E04FE050E013DC82E090E06CE370E035
:102C90004AE050E0F9DC84E065E070E04FE050E0AD
:102CA00006DC60913B0170913C0182E090E04AE0DB
:102CB00050E0EACC5F926F927F928F929F92AF9298
:102CC000BF92CF92DF92EF92FF920F931F93DF9309
:102CD000CF93CDB7DEB72C970FB6F894DEBF0FBEFB
:102CE000CDBF182F6B01042F8139B1F1823940F427
:102CF0008138F1F0803931F1803809F075C00CC0AD
:102D0000833909F446C08339B0F1843909F450C0DD
:102D1000853909F069C05BC084E00E94530A8823AA
:102D200021F0802F0E94780BD2C70E94BE07CDC72A
:102D300085E00E94530A882309F0C9C7F6018481FF
:102D400025DAC3C786E00E94530A882309F0BFC76B
:102D5000F601848195810CC48AE00E94530A88237D
:102D600009F0B5C7F6016681778140855185848178
:102D70009581F8D9AAC789E00E94530A882309F0EF
:102D8000A6C7F60165817681478150858481D8D9AF
:102D90009CC78AE00E94530A882309F098C7F6016D
:102DA000468157812085318584816581ADD98DC764
:102DB0008AE00E94530A882309F089C7F6014681F8
:102DC0005781208531858481658182D97EC788E0DD
:102DD0000E94530A882309F07AC7F6016681778139
:102DE0008481958171D971C780910002882309F48B
:102DF0009FC0173F88F4153F08F055C0123F19F1E6
:102E0000133F20F4113F09F093C013C0133F41F169
:102E1000143F09F08DC036C0183F09F466C0183F52
:102E200008F455C0193F09F400C11A3F09F080C0E9
:102E30006DC084E0B601402F0E94530A882309F038
:102E400046C724DC42C786E0B601402F0E94530AE1
:102E5000882309F03CC7F60184819581DCD935C708
:102E60008BE0B601402F0E94530A882309F02FC738
:102E7000F60166817781408551858481958122851F
:102E8000C9DB23C78AE0B601402F0E94530A88237A
:102E900009F01DC7F60165817681478150858481DF
:102EA0002185CDDA12C78BE0B601402F0E94530A6C
:102EB000882309F00CC7153F09F481E0F60126814B
:102EC00037810085118564814581E284F2C088E004
:102ED000B601402F0E94530A882309F0F8C6F60174
:102EE000668177818481958133C68AE0B601402F5F
:102EF0000E94530A882309F0EAC6F60166817781A9
:102F000040855185848195810BDBDFC68BE0B6015E
:102F1000402F0E94530A882309F0D9C6F601668122
:102F2000778140855185848195812285C4D9CDC61C
:102F3000103FB9F488E0B601402F0E94530A88235D
:102F400009F0C5C6F60184819581A681B7818D55AA
:102F50009444A247B74F09F0BCC681E080930002B9
:102F6000B4C61B3B09F4B0C21C3B88F5133B09F403
:102F7000A2C0143BC8F4123A09F464C0133A50F4E6
:102F8000103A09F452C0113A08F0E8C11F3909F0AB
:102F9000A0C665C0113B09F4AEC0123B08F0BBC02F
:102FA000103B09F096C69AC0173B09F4E4C0183BE1
:102FB00038F4153B09F4C6C0163B08F0CFC0B5C0C5
:102FC000193B09F47DC11A3B08F051C21BC1133CE7
:102FD00009F460C4143C98F41F3B09F43DC3103C51
:102FE00038F41D3B09F490C21E3B08F0C4C27AC2FB
:102FF000113C09F4B3C3123C08F0E5C372C3173C9B
:1030000009F490C5183C38F4153C09F4F8C4163C92
:1030100008F050C5B3C4193C09F402C6193C08F4C1
:103020009AC51A3C09F055C61EC686E0B601402F67
:103030000E94530A882309F04AC6F60184819581CB
:1030400038DA43C686E0B601402F0E94530A88232F
:1030500009F03DC6F6018481958110DE36C68CE00C
:10306000B601402F0E94530A882309F030C6F601AA
:10307000F3848481958160E070E04F2D50E020E082
:10308000C9DAF601868160E070E04F2D50E020E063
:10309000D6D981E0F6016781408520E030E00F2D30
:1030A00010E0EE245ED980E0F601618542852F2D87
:1030B00030E057D90AC68CE0B601402F0E94530A6F
:1030C000882309F004C6F601668177814085518521
:1030D000228533858481958127DBF7C586E0B6019B
:1030E000402F0E94530A882309F0F1C5F60184811C
:1030F000658128DDEAC589E0B601402F0E94530AA8
:10310000882309F0E4C5F601658176814781508501
:1031100084818EDDDAC584E0B601402F0E94530A17
:10312000882309F0D4C52ADBD0C586E0B601402F3C
:103130000E94530A882309F0CAC5F601848165817B
:1031400094DBC3C585E0B601402F0E94530A882353
:1031500009F0BDC5F601848102DCB7C586E0B60181
:10316000402F0E94530A882309F0B1C5F6018481DB
:1031700065813CDCAAC585E0B601402F0E94530A58
:10318000882309F0A4C5F601148181E061E06DDBBC
:10319000112399F18CE361E029DC84E090E064E1A3
:1031A00070E04AE050E070DA86E090E063E070E0C2
:1031B000A3D886E090E063E070E09ED886E090E0DF
:1031C00063E070E099D880E090E062E070E094D82D
:1031D00086E090E063E070E08FD880E090E062E00D
:1031E00070E08AD886E090E063E070E085D880E007
:1031F00090E062E070E080D802C081E0B0DB81E066
:103200007CDA63C586E0B601402F0E94530A88230A
:1032100009F05DC5F6010481158181E061E025DBDF
:1032200084E090E064E170E04AE050E02DDA84E070
:1032300090E060E070E024DA82E090E063E070E02B
:103240005BD882E090E063E070E056D882E090E0E6
:1032500063E070E051D884E090E060E070E010DA64
:1032600082E090E063E070E047D886E090E063E0C1
:1032700070E042D880E090E062E070E03DD882E00B
:1032800090E060E070E038D884E090E064E170E0C5
:103290004AE050E0F9D984E090E064E170E04AE06F
:1032A00050E0F2D986E090E063E070E025D884E059
:1032B00090E062E070E020D880E090E1B801C8C101
:1032C00087E0B601402F0E94530A882309F0FFC40B
:1032D000F6010481E580F68081E060E0C6DA84E0F2
:1032E00090E064E170E04AE050E0CED984E090E004
:1032F00060E070E0C5D982E090E063E070E00E9499
:103300007C1182E090E063E070E00E947C1110E0AC
:1033100007C084E090E063E070E00E947C111F5FD2
:103320001017B8F384E090E060E070E0A9D982E083
:1033300090E063E070E00E947C1182E090E063E046
:1033400070E00E947C1184E090E064E170E04AE06B
:1033500050E09AD980E090E1B7017AC18BE0B601E4
:10336000402F0E94530A882309F0B1C4F601B480AB
:10337000FCE0FB1510F48CE0B82E30E020E0BE013C
:103380006F5F7F4FAE014E5F5F4F13C0F601E30FDB
:10339000F11D95813F5FE22FF0E0DB01AE0FBF1F13
:1033A000892F8F708C93E40FF51F92959F709083F7
:1033B0002E5F2B1558F39924AA24FF24F3943E0181
:1033C0000894611C711C42C0F301EA0DF11D0081DB
:1033D000FE01EB0DF11D1081003308F00053103396
:1033E00008F010530A3008F000E01A3008F010E03E
:1033F0008F2D602F40E0E0D96C018F2D612F40E0D0
:10340000DBD98C159D0508F4012F8F2D602F41E02D
:10341000D3D97C01009721F483E090E00E946610EC
:10342000992029F080E190E060E070E029D984E003
:1034300090E060E070E024D9EC14FD0418F0A3944F
:10344000992403C0BA9499249394F02EAB1408F4F1
:10345000BBCF83E090E00E94661080E092E063E0E2
:1034600070E00ED980E092E063E070E010C288E086
:10347000B601402F0E94530A882309F028C4F601A0
:10348000068117816481758181E090E04AE050E017
:10349000FBD880E090E065E070E00E947C1180E065
:1034A00090E065E070E00E947C1182E090E065E0D1
:1034B00070E00E947C1180E092E063E070E0E0D870
:1034C00082E090E0B80144C387E0B601402F0E943B
:1034D000530A882309F0FBC3F60184816581468184
:1034E000ECDAF3C38BE0B601402F0E94530A882325
:1034F00009F0EDC3F601468157812085318584812D
:10350000658102855ADBE1C38CE0B601402F0E9441
:10351000530A882309F0DBC3F6015480A580B680E6
:1035200067807084818492841385852D61E0A30176
:103530009401012F42DB6C017C010DC08091C4011C
:10354000882309F0C2C3852D60E0A3019401012FF7
:1035500034DBE80EF91EC7018C0D9D1DA816B906B7
:1035600068F7EA14FB0408F0B0C3C5018E199F097F
:103570000E946610AAC384E0B601402F0E94530A3D
:10358000882309F0A4C382E090E063E070E00E9429
:103590007C1182E090E063E070E00E947C1182E0A8
:1035A00090E063E070E00E947C1182E090E063E0D4
:1035B00070E00E947C1182E090E063E070E00E9485
:1035C0007C1182E090E063E070E00E947C1184E076
:1035D00090E063E070E00E947C1184E090E063E0A2
:1035E00070E00E947C1186E090E060E070E00E9454
:1035F0007C1184E090E064E170E04AE050E044D85F
:1036000082E090E063E070E00E947C1182E090E054
:1036100063E070E00E947C1182E090E063E070E083
:103620000E947C1182E090E063E070E00E947C11D7
:1036300082E090E063E070E00E947C1182E090E024
:1036400060E070E00E947C1184E090E064E170E052
:103650004AE050E019D839C384E0B601402F0E94F7
:10366000530A882309F033C310E084E090E063E05C
:1036700070E00E947C111F5F1D30B9F784E090E07C
:1036800060E070E00E947C1184E090E068E270E00D
:103690004AE050E00E94441386E090E060E070E071
:1036A0000E947C1184E090E068E270E04AE050E023
:1036B0000E94441380E090E060E070E00E947C1182
:1036C00084E090E063E070E00E94401310E084E04A
:1036D00090E063E070E00E947C111F5F1D30B9F73D
:1036E0006BC085E0B601402F0E94530A882309F081
:1036F000EEC2F601148184E090E06CE070E00E947C
:10370000401384E090E068E070E00E94401386E09F
:1037100090E063E070E00E947C1186E090E063E05E
:1037200070E00E947C1186E090E063E070E00E940F
:103730007C11112331F086E090E063E070E00E949C
:103740007C1110E084E090E063E070E00E947C1166
:103750001F5F1C33B9F784E090E067C084E0B601D6
:10376000402F0E94530A882309F0B1C210E080E084
:1037700090E063E070E00E947C111F5F1D30B9F79C
:1037800080E090E060E070E00E947C1184E090E0D6
:103790006AE070E00E94401384E090E06FE070E027
:1037A0000E94401310E084E090E063E070E00E942B
:1037B0007C111F5F1A30B9F784E090E060E070E0A0
:1037C0000E947C1182C285E0B601402F0E94530AFC
:1037D000882309F07CC2F601148184E090E06FE058
:1037E00070E00E94401384E090E065E070E00E9489
:1037F0004013112331F086E090E063E070E00E9416
:103800007C1186E090E063E070E00E947C1186E02D
:1038100090E063E070E00E947C1186E090E063E05D
:1038200070E00E947C1180E090E060E070E00E9417
:103830007C1184E090E062E070E00E94401382E03E
:1038400090E063E070E00E947C1182E090E063E031
:1038500070E00E947C1182E090E060E070E00E94E5
:103860007C1184E090E063E070E00E94401382E00D
:1038700090E063E070E00E947C1182E090E062E002
:1038800070E00E947C1184E090E06CE070E00E94A7
:1038900040131BC285E0B601402F0E94530A8823C3
:1038A00009F015C2F60184818F3198F584E090E02B
:1038B0006FE070E00E94401384E090E065E070E00B
:1038C0000E94401386E090E063E070E00E947C116B
:1038D00086E090E063E070E00E947C1186E090E07A
:1038E00063E070E00E947C1186E090E063E070E0AD
:1038F0000E947C1180E090E060E070E00E947C110A
:1039000084E090E068E070E00E94401380E090E086
:10391000CCC084E090E06CE070E00E94401384E052
:1039200090E068E070E00E94401386E090E063E081
:1039300070E00E947C1186E090E063E070E00E94FD
:103940007C1186E090E063E070E00E947C1180E0F2
:1039500090E063E070E00E947C1186E090E063E01C
:1039600070E00E947C1180E090E060E070E00E94D6
:103970007C1184E090E063E070E05FCF84E0B6010A
:10398000402F0E94530A882309F0A1C184E090E0EF
:103990006CE070E00E94401384E090E068E070E02A
:1039A0000E94401386E090E063E070E00E947C118A
:1039B00086E090E063E070E00E947C1186E090E099
:1039C00063E070E00E947C1180E090E063E070E0D2
:1039D0000E947C1186E090E063E070E00E947C1120
:1039E00080E090E063E070E00E947C1186E090E06F
:1039F00063E070E00E947C1180E090E04AC084E0C7
:103A0000B601402F0E94530A882309F060C184E068
:103A100090E06CE070E00E94401384E090E068E089
:103A200070E00E94401386E090E063E070E00E9446
:103A30007C1186E090E063E070E00E947C1186E0FB
:103A400090E063E070E00E947C1180E090E063E031
:103A500070E00E947C1186E090E063E070E00E94DC
:103A60007C1180E090E063E070E00E947C1186E0D1
:103A700090E063E070E00E947C111CE384E090E041
:103A800063E070E00E947C1111501130B9F784E0BE
:103A900090E060E070E00E947C1184E090E062E0E1
:103AA00070E00E94401382E090E063E070E00E94CA
:103AB0007C11C5CE84E0B601402F0E94530A8823B2
:103AC00009F005C181E06FEF4FEF22E330E00E9483
:103AD000F31181E06FEF40EA20E030E00EEF11E0FB
:103AE0000E94FD1184E090E06AEA70E00E944013B9
:103AF00084E090E06AEA70E00E94401384E090E085
:103B00006AEA70E00E94401381E060E040E822E34E
:103B100030E006E811E00E94FD1182E090E066E8E6
:103B200071E0C3C086E0B601402F0E94530A88238B
:103B300009F0CDC0F601E480F58081E06FEF40E848
:103B400020E030E087010E94FD1182E090E0B701A3
:103B50000E94EA12BAC086E0B601402F0E94530AC2
:103B6000882309F0B4C0F601C480D580EE24FF2478
:103B700052C081E060E84FEF20E030E000E210E06A
:103B80000E94FD1184E090E060E170E00E9440132B
:103B900084E090E060E170E00E94401381E06FEF0C
:103BA00040E820E030E00E94FD1184E090E060E118
:103BB00070E00E94401384E090E060E170E00E94B9
:103BC000401381E060E840E020E030E00E94FD1119
:103BD00084E090E060E170E00E94401384E090E0B7
:103BE00060E170E00E94401381E060E040E820E086
:103BF00030E00E94FD1184E090E060E170E00E94FE
:103C0000401384E090E060E170E00E94401380E89F
:103C100090E0E80EF91EEC14FD0408F4AACF55C09C
:103C200084E0B601402F0E94530A882309F04FC058
:103C300081E06FEF40E924E630E00AEF10E00E94F7
:103C4000FD1184E090E064E670E00E94401384E09F
:103C500090E062E370E00E94401381E06FEF4FEF6D
:103C600022E330E030C084E0B601402F0E94530AC6
:103C7000882369F581E060E84FEF2EE130E00E9493
:103C8000F31181E06FEF40E924E031E00E94F3118D
:103C900081E060E040E822E330E000E911E00E94CA
:103CA000FD1182E090E060E971E00E94EA1281E09B
:103CB00060EC40E028E730E00E94F31181E06FEF14
:103CC00040E028E730E00E94F3110E94CD0981E036
:103CD00001C080E02C960FB6F894DEBF0FBECDBFBA
:103CE000CF91DF911F910F91FF90EF90DF90CF90D8
:103CF000BF90AF909F908F907F906F905F9008954E
:103D0000A1E21A2EAA1BBB1BFD010DC0AA1FBB1FDF
:103D1000EE1FFF1FA217B307E407F50720F0A21B51
:103D2000B30BE40BF50B661F771F881F991F1A94BE
:103D300069F760957095809590959B01AC01BD01E8
:103D4000CF010895FB01DC0102C005900D924150A6
:103D50005040D8F70895FB01DC0102C001900D929C
:0C3D600041505040D8F70895F894FFCF70
:103D6C00012003E8037800FA0064007D007701C8A5
:103D7C0000FA007701FA00C40977015F057D007134
:103D8C0002500077016E007701F4017701E45714BB
:103D9C000050005A002C012C01FA00FA000100001E
:103DAC000001000000381EE797FB0D000008808022
:043DBC008080000003
:00000001FF
